:10018F003F065B4F666D7D077F6F777C395E7971B8
:10019F000040761E7038375C733E783D6750376E7F
:1001AF00BF86DBCFE6EDFD87FFEF460102040810A7
:0301BF002040805D
:1001ED007580FF75A0C0EF9001BA93F580E4F5A07E
:0F01FD0075A0E0ED90018F93F4F580E4F5A0225A
:10000300438E4053890F758B20758DD1C28FD28E4D
:05001300D2ABD2AF22C8
:0100180022C5
:10001E00E4FFE5087044C2B0D2B1D2B2D2B320B779
:10002E000C20B70512001880F8E4FE7F0120B60CF4
:10003E0020B60512001880F87E017F0120B50C2035
:10004E00B50512001880F87E027F0120B40C20B492
:10005E000512001880F87E037F01E50864017044E4
:10006E00D2B0C2B1D2B2D2B320B70C20B7051200B3
:10007E001880F87E047F0120B60C20B605120018F9
:10008E0080F87E057F0120B50C20B5051200188082
:10009E00F87E067F0120B40C20B40512001880F8FB
:1000AE007E077F01E50864027044D2B0D2B1C2B2BD
:1000BE00D2B320B70C20B70512001880F87E087F47
:1000CE000120B60C20B60512001880F87E097F01BB
:1000DE0020B50C20B50512001880F87E0A7F01208D
:1000EE00B40C20B40512001880F87E0B7F01E508D1
:1000FE0064037044D2B0D2B1D2B2C2B320B70C20D6
:10010E00B70512001880F87E0C7F0120B60C20B6C1
:10011E000512001880F87E0D7F0120B50C20B50564
:10012E0012001880F87E0E7F0120B40C20B4051248
:10013E00001880F87E0F7F010508E508B40403E47B
:0A014E00F508EF6003AF06227F639F
:010158002284
:1001C20075A0807580FFE4F5A075A0A0F580F5A06C
:1001D200D2B4D2B5D2B6D2B712000312001E8F0A21
:0B01E200E50A646360F5850A0B80F0FD
:03001B0002015986
:10015900C0E0C083C082C0D075D000C000C005C057
:10016900070509E509B40803750900740B2509F8A1
:10017900E6FDAF091201EDD007D005D000D0D0D0EF
:0601890082D083D0E032B9
:0300000002020CED
:0C020C00787FE4F6D8FD7581120201C273
:00000001FF
