:10021D003F065B4F666D7D077F6F777C395E797129
:10022D000040761E7038375C733E783D6750376EF0
:10023D00BF86DBCFE6EDFD87FFEF46010204081018
:03024D00204080CE
:0302AE00010B63DE
:10027F007580FF75A0C0EF90024893F580E4F5A05C
:0F028F0075A0E0ED90021D93F4F580E4F5A02238
:10000300438E4053890F758B20758DD1C28FD28E4D
:05001300D2ABD2AF22C8
:0100180022C5
:10001E00E4FFE5087044C2B0D2B1D2B2D2B320C46C
:10002E000C20C40512001880F8E4FE7F0120C20CDB
:10003E0020C20512001880F87E017F0120B50C2029
:10004E00B50512001880F87E027F0120B40C20B492
:10005E000512001880F87E037F01E50864017044E4
:10006E00D2B0C2B1D2B2D2B320C40C20C405120099
:10007E001880F87E047F0120C20C20C205120018E1
:10008E0080F87E057F0120B50C20B5051200188082
:10009E00F87E067F0120B40C20B40512001880F8FB
:1000AE007E077F01E50864027044D2B0D2B1C2B2BD
:1000BE00D2B320C40C20C40512001880F87E087F2D
:1000CE000120C20C20C20512001880F87E097F01A3
:1000DE0020B50C20B50512001880F87E0A7F01208D
:1000EE00B40C20B40512001880F87E0B7F01E508D1
:1000FE0064037044D2B0D2B1D2B2C2B320C40C20C9
:10010E00C40512001880F87E0C7F0120C20C20C29C
:10011E000512001880F87E0D7F0120B50C20B50564
:10012E0012001880F87E0E7F0120B40C20B4051248
:10013E00001880F87E0F7F010508E508B40403E47B
:0A014E00F508EF6003AF06227F639F
:010158002284
:10029E00E509C394024008E4F50912001E8F0B22F3
:1002500075A0807580FFE4F5A075A0A0F580F5A0DD
:10026000D2B4D2B5D2C2D2C412000312029EE50BA0
:0F027000B401F80515E51570020514F50C80ECC6
:03001B000201E5FA
:1001E500C0E0C083C082C0D075D000C000C005C0CB
:1001F50007050AE50AB40803750A00740C250AF810
:10020500E6FDAF0A12027F0509D007D005D000D060
:08021500D0D082D083D0E0328A
:03000000020159A1
:0C015900787FE4F6D8FD7581150201A046
:10016500020250E493A3F8E493A34003F68001F25E
:1001750008DFF48029E493A3F85407240CC8C3339B
:10018500C4540F4420C8834004F456800146F6DF6A
:10019500E4800B01020408102040809002AEE47E4A
:1001A500019360BCA3FF543F30E509541FFEE4935F
:1001B500A360010ECF54C025E060A840B8E493A326
:1001C500FAE493A3F8E493A3C8C582C8CAC583CA51
:1001D500F0A3C8C582C8CAC583CADFE9DEE780BE09
:0102B100004C
:00000001FF
