:1001FC003F065B4F666D7D077F6F777C395E79714B
:10020C000040761E7038375C733E783D6750376E11
:10021C00BF86DBCFE6EDFD87FFEF46010204081039
:03022C00204080EF
:03028E00010A63FF
:10025F007580FF75A0C0EF90022793F580E4F5A09D
:0F026F0075A0E0ED9001FC93F4F580E4F5A0227A
:10000300438E4053890F758B20758DD1C28FD28E4D
:05001300D2ABD2AF22C8
:0100180022C5
:10001E00C200C200C2C4D2C2D2B5D2B420B00C202B
:10002E00B00512001880F8D2007F0120B10C20B16B
:10003E000512001880F8D2007F0520B20C20B20500
:10004E0012001880F8D2007F0920B30C20B30512DD
:10005E00001880F8D2007F0DD2C4C2C2D2B5D2B47D
:10006E0020B00C20B00512001880F8D2007F0220BC
:10007E00B10C20B10512001880F8D2007F0620B214
:10008E000C20B20512001880F8D2007F0A20B30CA3
:10009E0020B30512001880F8D2007F0ED2C4D2C24F
:1000AE00C2B5D2B420B00C20B00512001880F8D220
:1000BE00007F0320B10C20B10512001880F8D20089
:1000CE007F0720B20C20B20512001880F8D2007FF4
:1000DE000B20B30C20B30512001880F8D2007F0F4E
:1000EE00D2C4D2C2D2B5C2B420B00C20B005120018
:1000FE001880F8D2007F0420B10C20B10512001830
:10010E0080F8D2007F0820B20C20B20512001880B1
:10011E00F8D2007F0C20B30C20B30512001880F823
:09012E00D2007F102000027F6363
:0101370022A5
:10027E00E508C394024008E4F50812001E8F0A2216
:10022F0075A0807580FFE4F5A075A0A0F580F5A0FE
:10023F00D2B4D2B5D2C2D2C412000312027E1200BF
:10024F001E8F0AE50A646360F2E50A14F50B80EB72
:03001B000201C41B
:1001C400C0E0C083C082C0D075D000C000C005C0EC
:1001D400070509E509B40803750900740B2509F836
:1001E400E6FDAF0912025F0508D007D005D000D0A4
:0801F400D0D082D083D0E032AC
:03000000020138C2
:0C013800787FE4F6D8FD75812002017F7D
:1001440002022FE493A3F8E493A34003F68001F2A0
:1001540008DFF48029E493A3F85407240CC8C333BC
:10016400C4540F4420C8834004F456800146F6DF8B
:10017400E4800B010204081020408090028EE47E8B
:10018400019360BCA3FF543F30E509541FFEE49380
:10019400A360010ECF54C025E060A840B8E493A347
:1001A400FAE493A3F8E493A3C8C582C8CAC583CA72
:1001B400F0A3C8C582C8CAC583CADFE9DEE780BE2A
:01029100006C
:00000001FF
