:04018B00D2A07F057A
:0A018F00000000AE071FEE70F7221B
:0F017C00D2A112018BC2A17F0512018FC2A02256
:0C019900C2A112018BD2A17F0502018FD0
:10000300C2A0A20092A17F0512018F12018BC2A090
:07001300D2A17F0502018F5D
:08014E0012017C7FA012008762
:1001560012018BA2A19201C2A07F0512018FA201FA
:010166002276
:02008700AD07C3
:10008900E4FCC2A07F0512018FED30E704D2A18004
:1000990002C2A17F0512018FD2A0ED25E0FD7F05E7
:0900A90012018F0CBC08DBC2A09F
:0100B200222B
:1000FB00E4FC12018BED25E0FD30A103430501C2A9
:0C010B00A07F0512018F0CBC08E8AF05B6
:0101170022C5
:10013400AB05AA0712014EAF02120087120156AF97
:0A0144000312008712015602019910
:0200B300AB0799
:1000B50012014EAF0312008712015612017C7FA177
:1000C5001200871201561200FBAD071201561201EC
:0300D50099AF05DB
:0100D8002205
:100054003F065B4F666D7D077F6F777C395E7971F4
:100064000040761E7038375C733E783D6750376EBB
:10007400BF86DBCFE6EDFD87FFEF460102040810E3
:0300840020408099
:10016700438E4053890F758B20758DD1C28FD28EE8
:05017700D2ABD2AF2263
:1001180075A0C0EF90007F93F580E4F5A075A0E08E
:0C012800ED90005493F4F580E4F5A02263
:0801B1007F2F7EAEDEFEDFFCB5
:0101B9002223
:1000D90075A0807580FFE4F5A075A0A0F580F5A056
:1000E9001201B17F011200B38F0812016785080A56
:0200F90080FB8A
:03001B0002001EC2
:10001E00C0E0C083C082C0D075D000C000C005C093
:10002E00070509E509B40803750900740A2509F8DE
:10003E00E6FDAF09120118D007D005D000D0D0D000
:06004E0082D083D0E032F5
:030000000201A555
:0C01A500787FE4F6D8FD7581200200D9B7
:00000001FF
