:1000AA00202B183F065B4F666D7D077F6F777C3983
:1000BA005E79710040761E7038375C733E783D6712
:1000CA0050376EBF86DBCFE6EDFD87FFEF460808A7
:0800DA0001020408102040801F
:10000300438E4053890F758B20758DD1C28FD28E4D
:05001300D2ABD2AF22C8
:10013D0075A0C074082FF8E6F580E4F5A075A0E071
:0E014D0074182DF8E6F4F580E4F5A0F5802294
:1001110075A0807580FFE4F5A075A0A0F580F5A01D
:10012100120003E4FFFEEF04FD74102FF8A6050F83
:0C013100BF00010EEF64084E70EC80E788
:03001B000200E3FD
:1000E300C0E0C0D075D000C000C005C0070543E51F
:1000F30043B4080375430074102543F8E6FDAF438A
:0E01030012013DD007D005D000D0D0D0E032A0
:0300000002001EDD
:0C001E00787FE4F6D8FD75814302006590
:10002A00020111E493A3F8E493A34003F68001F2DA
:10003A0008DFF48029E493A3F85407240CC8C333D7
:10004A00C4540F4420C8834004F456800146F6DFA6
:10005A00E4800B01020408102040809000AAE47E8C
:10006A00019360BCA3FF543F30E509541FFEE4939B
:10007A00A360010ECF54C025E060A840B8E493A362
:10008A00FAE493A3F8E493A3C8C582C8CAC583CA8D
:10009A00F0A3C8C582C8CAC583CADFE9DEE780BE45
:0100E200001D
:00000001FF
