:100195003F065B4F666D7D077F6F777C395E7971B2
:1001A5000040761E7038375C733E783D6750376E79
:1001B500BF86DBCFE6EDFD87FFEF460102040810A1
:0301C50020408057
:1001C8007580FF75A0C0EF9001C093F580E4F5A09D
:0F01D80075A0E0ED90019593F4F580E4F5A02279
:10020200438E80758904E4F58AF58CC28DC28C22F6
:10000300438E4053890F758B20758DD1C28FD28E4D
:05001300D2ABD2AF22C8
:10001E00750D0F750E10750F10D3E50C940FE50BC3
:10002E0094274016AE0BAF0C7C277D101200D47CAB
:10003E00007D0A1200D48D108003751010D3E50CCC
:10004E0094E7E50B94034016AE0BAF0C7C037DE8F2
:10005E001200D47C007D0A1200D48D11800375111C
:10006E0010D3E50C9463E50B94004016AE0BAF0C69
:10007E007C007D641200D47C007D0A1200D48D12A7
:10008E008003751210D3E50C9409E50B940040160D
:10009E00AE0BAF0C7C007D0A1200D47C007D0A12E0
:1000AE0000D48D138003751310D3E50C9400E50B6B
:1000BE009400400EAE0BAF0C7C007D0A1200D48D66
:0600CE001422751410223B
:1001E70075A0807580FFE4F5A075A0A0F580F5A047
:0B01F70012020212000312001E80FB27
:100162000509E50970020508B4F427E508B401227F
:10017200C28CE4F508F509AF8CEF750C00F50BAFF6
:100182008AEF250CF50CE4350BF50BE4F58CF58ABA
:02019200D28C0D
:010194002248
:03001B00020129B6
:10012900C0E0C083C082C0D075D000C000C005C087
:1001390007050AE50AB40803750A00740D250AF8CB
:10014900E6FDAF0A1201C8120162D007D005D0003E
:09015900D0D0D082D083D0E03276
:03000000020212E7
:0C021200787FE4F6D8FD7581140201E746
:1000D400BC000BBE0029EF8DF084FFADF022E4CC10
:1000E400F875F008EF2FFFEE33FEEC33FCEE9DECD9
:1000F400984005FCEE9DFE0FD5F0E9E4CEFD22ED1F
:10010400F8F5F0EE8420D21CFEADF075F008EF2F68
:10011400FFED33FD4007985006D5F0F222C398FD59
:050124000FD5F0EA22F6
:00000001FF
