:1003AB003F065B4F666D7D077F6F777C395E79719A
:1003BB000040761E7038375C733E783D6750376E61
:1003CB00BF86DBCFE6EDFD87FFEF46010204081089
:0303DB002040803F
:04043800020903E7CB
:10042700538E7F5389F0758AF4758CFFC28DD28CF9
:0104370022A2
:1002D2007F0AE4FDFC120427C290AE071FEE6009FC
:1002E200308DFDD290C28D80F1C28CE4F58CF58AFE
:1002F200D28C309103308DFA308D067C037DE780FD
:1003020024AF8CEFFEAD8A7C00E42DFDEC3EFCE4D4
:100312001201297B967A43798B783C12001E1201D6
:0B03220062AC06AD07C28CAE04AF0554
:01032D0022AD
:1003DE007580FF75A0C0EF9003D693F580E4F5A06D
:0F03EE0075A0E0ED9003AB93F4F580E4F5A02249
:1003FD00438E4053890F758B20758DD1C28FD28E50
:05040D00D2ABD2AF22CA
:10032E00750C11750D11750E11750F11751011AE2D
:10033E0009AF0A7C007D641201E37C007D0A120184
:10034E00E38D11AE09AF0A7C007D0A1201E37C0039
:10035E007D0A1201E38D12AE09AF0A7C007D0A12EE
:05036E0001E38D1322E4
:10041200E50BC39414400DE4F50B1202D28E098F42
:050422000A12032E2266
:1000030075A0807580FFE4F5A075A0A0F580F5A02C
:080013001203FD12041280FB30
:03001B000203736A
:10037300C0E0C083C082C0D075D000C000C005C03B
:10038300070508E508B40803750800050B740C2578
:1003930008F8E6FDAF081203DED007D005D000D081
:0803A300D0D082D083D0E032FB
:10001E00EC4D6011E8497017ED33EC3304600DE4DC
:10002E00FCFFFEFD22E933E8330470F80201CE1224
:10003E00019958046009E4CC248150062850090225
:10004E0001D82840030201D5C0E0EB4A7044B980C4
:10005E0006D0E0FB0201C4EF4E701CBD8008EBFF22
:10006E00EAFEE9FD80EBE98DF0A4FEE5F002010762
:10007E00E9CDF9EAFEEBFFEF89F0A4FCE5F0CE89BD
:10008E00F0A42EFFE435F0CD89F0A42DFEE435F07A
:10009E008067EF4E7005BD80D780C3EF8BF0A4ACA8
:1000AE00F0EE8BF0A42CFCE435F0F8EF8AF0A42CE3
:1000BE00E5F038FCE433CB8DF0A42CFCE5F03BF8F6
:1000CE00EE8AF0A42CFCE5F038F8E433CF89F0A4E6
:1000DE002CFCE5F038CF3400CE89F0A42FFFE5F0EC
:1000EE003EFEE433C98DF0A42EFEE5F039CD8AF044
:1000FE00A42FFFE5F03EFEE43DFD33D0E0FB5007BC
:10010E000BBB000F0201D8EC2CFCEF33FFEE33FEDD
:06011E00ED33FD0201B00B
:1001240075F020800E75F010800575F0087D007E56
:10013400007F003392D530D503120238EC334010DF
:10014400EF33FFEE33FEED33FDEC33FCD5F0ED225F
:0E015400E5F0247EA2D513CC92E7CDCEFF229B
:10016200EDD2E7CD33EC3392D524814006E4FFFE95
:10017200FDFC22FCE4CFCECDCC24E0501174FF80F4
:10018200EDC3CC13CCCD13CDCE13CECF13CF047091
:07019200F030D5DE02023857
:10019900E9D2E7C933E833F892D5EDD2E7CD33ECAC
:0701A90033FC5002B2D52225
:1001B000EC30E7100FBF000C0EBE00080DBD0004B0
:1001C0000BEB6014A2D5EB13FCED92E7FD2274FF5C
:1001D000FCFDFEFF22E480F8A2D574FF13FC7D80B5
:0301E000E480EFC9
:03000000020246B3
:0C024600787FE4F6D8FD75811302028D6C
:1001E300BC000BBE0029EF8DF084FFADF022E4CC00
:1001F300F875F008EF2FFFEE33FEEC33FCEE9DECC9
:10020300984005FCEE9DFE0FD5F0E9E4CEFD22ED0E
:10021300F8F5F0EE8420D21CFEADF075F008EF2F58
:10022300FFED33FD4007985006D5F0F222C398FD49
:050233000FD5F0EA22E6
:0E023800C3E49FFFE49EFEE49DFDE49CFC22D7
:10025200020003E493A3F8E493A34003F68001F2BF
:1002620008DFF48029E493A3F85407240CC8C333AD
:10027200C4540F4420C8834004F456800146F6DF7C
:10028200E4800B0102040810204080900438E47ED0
:10029200019360BCA3FF543F30E509541FFEE49371
:1002A200A360010ECF54C025E060A840B8E493A338
:1002B200FAE493A3F8E493A3C8C582C8CAC583CA63
:1002C200F0A3C8C582C8CAC583CADFE9DEE780BE1B
:01043C0000BF
:00000001FF
