:1000EF007580FF75A080300702C280200702D28082
:1000FF00300802C281200802D281300002C2822061
:10010F000002D282300102C283200102D283300268
:10011F0002C284200202D284300302C2852003026D
:10012F00D285300402C286200402D286300502C274
:0A013F0087200502D287E4F5A02214
:10017600E4F58075A0A0300602D284200602C2846F
:04018600E4F5A022DA
:10000300438E4053890F758B20758DD1C28FD28E4D
:05001300D2AFD2AB22C8
:10001E0075A0807580FFE4F5A075A0A0F580F5A011
:10002E00120003E509640145087002D207E5096470
:10003E000245087002D208E509640345087002D231
:10004E0000E509640445087002D201E5096405451E
:10005E00087002D202E509640645087002D203E573
:10006E0009640745087002D204E509640845087062
:10007E0002D205E509640B45087002C205E5096464
:10008E000C45087002C204E509640D45087002C2F1
:10009E0003E509640E45087002C202E509640F45C6
:1000AE00087002C201E509641045087002C200E53D
:1000BE0009641145087002C208E50964124508700A
:1000CE0002C207E509641445087002D206E5096408
:1000DE001745086003020031C206F508F509020053
:0100EE0031E0
:03001B0002014996
:10014900C0E0C0D0050BE50B7002050AB4E813E561
:100159000AB4030E750A00750B000509E50970025A
:0D01690005081200EF120176D0D0D0E03270
:0300000002018A70
:0C018A00787FE4F6D8FD75812102001E8C
:00000001FF
