:100A6300E4FEC297EF1392A3EFC313FFD2970EBE18
:020A730008F089
:010A7500225E
:100A3B00C29300C29700D29300120A63AF05120A49
:040A4B0063C29322CD
:10079200E4FDC29300C29700D29300120A63E4FF01
:1007A200C297EDC313FD30A303430580D2970FBF59
:1007B20008EEC29300C29700D29700C2A300D2A350
:0307C20000AF0580
:0107C5002211
:040A9600D2A07F0566
:080A9A0000AE071FEE70F92207
:0F0A8700D2A1120A96C2A17F05120A9AC2A0221A
:0C0AA200C2A1120A96D2A17F05020A9A96
:0809AA00120A877FA012085A0F
:1009B200120A96A2A19205C2A07F05120A9AA20566
:0109C2002212
:02085A00AD07E8
:10085C00E4FCC2A07F05120A9AED30E704D2A18015
:10086C0002C2A17F05120A9AD2A0ED25E0FD7F05F8
:09087C00120A9A0CBC08DBC2A0B0
:010885002250
:10093C00E4FC120A96ED25E0FD30A103430501C24B
:0C094C00A07F05120A9A0CBC08E8AF0559
:01095800227C
:10097600AB05AA071209AAAF0212085A1209B2AFAA
:0A0986000312085A1209B2020AA275
:02088600AB07BE
:10088800C2AF1209AAAF0312085A1209B2120A8794
:100898007FA112085A1209B212093CAD071209B217
:0708A800120AA2D2AFAF0556
:0108AF002226
:1007F9003F065B4F666D7D077F6F777C395E797148
:100809000040761E7038375C733E783D6750376E0E
:10081900BF86DBCFE6EDFD87FFEF46010204081036
:03082900204080EC
:10095900C1800231028E02370141022F03E70C42A6
:0C09690000100010001000100010001022
:100A7600538E7F5389F0758AF4758CFFC28DD28CA4
:010A8600224D
:1006B7007F0AE4FDFC120A76C290AE071FEE6009BE
:1006C700308DFDD290C28D80F1C28CE4F58CF58A15
:1006D700D28C309103308DFA308D067C037DE78014
:1006E70024AF8CEFFEAD8A7C00E42DFDEC3EFCE4EC
:1006F7001203487B967A43798B783C12023D1203AA
:0B07070081AC06AD07C28CAE04AF054C
:0107120022C4
:10091E00E4F58075A0A0300202D286200202C286C3
:0E092E00300102D284200102C284E4F5A0222E
:100753008F088D098B0AE4FD7F8E120A3BAD0A7F59
:1007630080120A3BAD097F82120A3BAD087F8412D7
:100773000A3B7D807F8E120A3B7F851207928F345E
:0F0783007F831207928F337F811207928F2D226F
:10099000C2AF7F851207928F347F831207928F3305
:0A09A0007F811207928F2DD2AF2243
:10082C00E534C4540FF53AE534540FF53B753C11DF
:10083C00E533C4540FF53DE533540FF53E753F11C8
:0E084C00E52DC4540FF540E52D540FF5412263
:1009C300753A11753B1185433C85453D85473E8509
:0909D300493F854B40854D41224E
:1009DC00753A10753B1185433C85453D85473E85F1
:0909EC00493F854B40854D412235
:1009F500753A11753B1085433C85453D85473E85D8
:090A0500493F854B40854D41221B
:10000300E52670031209C3E526B401031209DCE5F2
:0800130026B402031209F522D4
:080AAE007F2F7EAEDEFEDFFCAF
:010AB600221D
:1008D8008F0DE50D7009120AAEFD7F07120976E546
:1008E8000DB4010A120AAE7D077F07120976120AB3
:0708F800AE7F071208862203
:100713008D098B0AAD077F01120976120AAEAD0966
:100723007F02120976120AAEAD0A7F03120976120E
:100733000AAEAD0B7F04120976120AAEAD0C7F052B
:10074300120976120AAEAD0D7F06120976020AAEC1
:1005CB007F021208D8EF6407706C7F011208868FC8
:1005DB00087F021208868F097F031208868F0A7F15
:1005EB00041208868F0B7F051208868F0C7F06126C
:1005FB000886AD07120AAEE50975F00AA4FBAAF04E
:10060B00E50875F064A42BFFE5F03AFEE50A7A00E5
:10061B002FF532EA3EF531E50C75F00AA4FBAAF092
:10062B00E50B75F064A42BFFE5F03AFE7C00EF2D93
:06063B00F538EC3EF53736
:010641002296
:1008FF007580FF75A0C0EF90082493F580E4F5A0F4
:0F090F0075A0E0ED9007F993F4F580E4F5A022D0
:100A2600438E4053890F758B20758DD1C28FD28E20
:050A3600D2ABD2AF229B
:010AB700221C
:10042200E4FFE5217044C2B0D2B1D2B2D2B320C44B
:100432000C20C405120AB780F8E4FE7F0120C20C2A
:1004420020C205120AB780F87E017F0120B50C2078
:10045200B505120AB780F87E027F0120B40C20B4E1
:1004620005120AB780F87E037F01E521640170441A
:10047200D2B0C2B1D2B2D2B320C40C20C405120A87
:10048200B780F87E047F0120C20C20C205120AB791
:1004920080F87E057F0120B50C20B505120AB780D1
:1004A200F87E067F0120B40C20B405120AB780F84A
:1004B2007E077F01E52164027044D2B0D2B1C2B29C
:1004C200D2B320C40C20C405120AB780F87E087F7C
:1004D2000120C20C20C205120AB780F87E097F01F2
:1004E20020B50C20B505120AB780F87E0A7F0120DC
:1004F200B40C20B405120AB780F87E0B7F01E52107
:1005020064037026D2B0D2B1D2B2C2B320B50C20ED
:10051200B505120AB780F87E0C7F0120B40C20B416
:1005220005120AB780F87E0D7F010521E521B4048A
:0C05320003E4F521EF6003AF06227F63B5
:01053E00229A
:1008B0007542007543107544007545107546007506
:1008C0004710754800754910754A00754B10754CF6
:0808D00000754D10E4F535221E
:10001E0020001212082CC3E530941EE52F940050D8
:10002E0004D201D20420000302023C120003E53682
:10003E00B40B1A750B03750C02750D017B047D054F
:10004E007F061207131205CBE4FF1208D8E52960CC
:10005E000302010EF526E536D39409501AAF36E5A4
:10006E003525E02442F8760008A6070535E535C3A8
:10007E0094054003753505E536640C600302010EE8
:10008E00AE44AF45FC7D0A120402AA06AB07AE428F
:10009E00AF437D64120402EF2BFFEE3AFEE5472FCD
:1000AE00F528E5463EF527AE4AAF4B7D0A1204020F
:1000BE00AA06AB07AE48AF497D64120402EF2BFFD0
:1000CE00EE3AFEE54D2FF52BE54C3EF52AE528B52B
:1000DE00321BE527B53116E52BB53816E52AB537AF
:1000EE00111208B0E4F52ED201D2048005052E12AD
:1000FE0008B0E52EC394034007E4F52ED202D203D6
:10010E00E536B40A061208B0752901E529640160C6
:10011E00030201E1752601E536B40D09E4F5291255
:10012E0008B00201E1E536D39409501AAF36E53531
:10013E0025E02442F8760008A6070535E535C39478
:10014E00054003753505E536640C60030201E1AE2A
:10015E0044AF45FC7D0A120402AA06AB07AE42AFBD
:10016E00437D64120402EF2BFFEE3AFEE5472FF5B6
:10017E0028E5463EF527AE4AAF4B7D0A120402AA89
:10018E0006AB07AE48AF497D64120402EF2BFFEEBB
:10019E003AFEE54D2FF52BE54C3EF52AE528B53216
:1001AE001DE527B53118E52BB53818E52AB53713F7
:1001BE001208B0752902E4F52E7536638005052EFA
:1001CE001208B0E52EC394034009E4F52ED202D2F4
:1001DE0003F529E52964027055752602E536B40D3E
:1001EE0006E4F5290208B0E536D39409501AAF3665
:1001FE00E53525E02442F8760008A6070535E535F5
:10020E00C394054003753505E536640C7020AF4385
:10021E00AD45AB4785490B854B0C854D0D1207132C
:0F022E001205CB7F011208D81208B0E4F529227F
:100A4F00E534C39407400AE534D394215005C2001E
:040A5F0022D200227D
:100A0E00E539C3940A4010E4F5391206B78E2F8FDC
:080A1E0030120990120A4F2268
:1007C60075A0807580FFE4F5A075A0A0F580F5A062
:1007D600D2B4D2B5D2C2D2C4FB7D597F061207531A
:1007E6001205CB120A261204228F36120A0E1200A6
:0307F6001E80F36F
:03001B0002064298
:10064200C0E0C083C082C0D075D000C000C005C069
:0106520007A0
:10065300053930041A0523E52370020522B4880FF7
:10066300E522B4130A752200752300C204C20130C7
:10067300031A0525E52570020524B4B80FE524B453
:100683000B0A752400752500C203C202052CE52C54
:10069300B40803752C00743A252CF8E6FDAF2C1230
:0506A30008FF12091E12
:0F06A800D007D005D000D0D0D082D083D0E032A0
:10023D00EC4D6011E8497017ED33EC3304600DE4BB
:10024D00FCFFFEFD22E933E8330470F80203ED12E2
:10025D0003B858046009E4CC2481500628500902E3
:10026D0003F72840030203F4C0E0EB4A7044B98061
:10027D0006D0E0FB0203E3EF4E701CBD8008EBFFE0
:10028D00EAFEE9FD80EBE98DF0A4FEE5F002032620
:10029D00E9CDF9EAFEEBFFEF89F0A4FCE5F0CE899C
:1002AD00F0A42EFFE435F0CD89F0A42DFEE435F059
:1002BD008067EF4E7005BD80D780C3EF8BF0A4AC87
:1002CD00F0EE8BF0A42CFCE435F0F8EF8AF0A42CC2
:1002DD00E5F038FCE433CB8DF0A42CFCE5F03BF8D5
:1002ED00EE8AF0A42CFCE5F038F8E433CF89F0A4C5
:1002FD002CFCE5F038CF3400CE89F0A42FFFE5F0CB
:10030D003EFEE433C98DF0A42EFEE5F039CD8AF022
:10031D00A42FFFE5F03EFEE43DFD33D0E0FB50079A
:10032D000BBB000F0203F7EC2CFCEF33FFEE33FE9B
:06033D00ED33FD0203CFC9
:1003430075F020800E75F010800575F0087D007E35
:10035300007F003392D530D503120414EC334010E0
:10036300EF33FFEE33FEED33FDEC33FCD5F0ED223E
:0E037300E5F0247EA2D513CC92E7CDCEFF227A
:10038100EDD2E7CD33EC3392D524814006E4FFFE74
:10039100FDFC22FCE4CFCECDCC24E0501174FF80D3
:1003A100EDC3CC13CCCD13CDCE13CECF13CF047070
:0703B100F030D5DE02041458
:1003B800E9D2E7C933E833F892D5EDD2E7CD33EC8B
:0703C80033FC5002B2D52204
:1003CF00EC30E7100FBF000C0EBE00080DBD00048F
:1003DF000BEB6014A2D5EB13FCED92E7FD2274FF3B
:1003EF00FCFDFEFF22E480F8A2D574FF13FC7D8094
:0303FF00E480EFA8
:0300000002053FB7
:0C053F00787FE4F6D8FD75814D0205863A
:10040200EF8DF0A4A8F0CF8CF0A428CE8DF0A42E0E
:02041200FE22C8
:0E041400C3E49FFFE49EFEE49DFDE49CFC22F9
:10054B000207C6E493A3F8E493A34003F68001F2F9
:10055B0008DFF48029E493A3F85407240CC8C333B1
:10056B00C4540F4420C8834004F456800146F6DF80
:10057B00E4800B0102040810204080900959E47EAE
:10058B00019360BCA3FF543F30E509541FFEE49375
:10059B00A360010ECF54C025E060A840B8E493A33C
:1005AB00FAE493A3F8E493A3C8C582C8CAC583CA67
:1005BB00F0A3C8C582C8CAC583CADFE9DEE780BE1F
:010975000081
:00000001FF
