:040AE900D2A07F0513
:0A0AED00000000AE071FEE70F722B4
:0F0ADA00D2A1120AE9C2A17F05120AEDC2A02221
:0C0AF700C2A1120AE9D2A17F05020AED9B
:10000300C2A0A21492A17F05120AED120AE9C2A0AE
:07001300D2A17F05020AEDF6
:050A9E00AF0312098BFB
:100AA300120AE9A2A19215C2A07F05120AEDA215AE
:010AB3002220
:02098B00AD07B6
:10098D00E4FCC2A07F05120AEDED30E704D2A18090
:10099D0002C2A17F05120AEDD2A0ED25E0FD7F0573
:0909AD00120AED0CBC08DBC2A02B
:0109B600221E
:100A4700E4FC120AE9ED25E0FD30A103430501C2EC
:0C0A5700A07F05120AED0CBC08E8AF05FA
:010A63002270
:100A6400AB05AA07120ADA7F9012098B120AA3AF08
:0D0A74000212098B120AA3120A9E020AF751
:0209E200AB0761
:1009E400C2AF120ADA7F9012098B120AA3120A9E6E
:1009F400120ADA7F9112098B120AA3120A47D2AFA4
:010A040022CF
:100A8100AB05AA07120ADA7FA012098B120AA3AFDB
:0D0A91000212098B120AA3120A9E020AF734
:02095E00AB07E5
:10096000C2AF120ADA7FA012098B120AA3120A9EE2
:10097000120ADA7FA112098B120AA3120A47AD07E5
:0A098000120AA3120AF7D2AFAF0566
:01098A00224A
:1008FD003F065B4F666D7D077F6F777C395E797143
:10090D000040761E7038375C733E783D6750376E09
:10091D00BF86DBCFE6EDFD87FFEF46010204081031
:03092D00204080E7
:090B0300C187C18CC18D013301D1
:100AC900538E7F5389F0758AF4758CFFC28DD28C51
:010AD90022FA
:100AB400438E4053890F758B20758DD1C28FD28E92
:050AC400D2ABD2AF220D
:080B0D007F2F7EAEDEFEDFFC4F
:010B150022BD
:1008BC007580FF75A080A212B39280A213B39281AF
:1008CC00A201B39282A202B39283A203B39284A236
:1008DC0004B39285A205B39286A206B39287E4F57F
:1008EC00A0F58075A0A0A2009284A2109286F5A01B
:0108FC0022D9
:1007C7007F0AE4FDFC120AC9C290AE071FEE60095A
:1007D700308DFDD290C28D80F1C28CE4F58CF58A04
:1007E700D28C309103308DFA308D067C037DE78003
:1007F70024AF8CEFFEAD8A7C00E42DFDEC3EFCE4DB
:100807001201C97B967A43798B783C12001E12023B
:0B08170002AC06AD07C28CAE04AF05BA
:0108220022B3
:100A28007580FF75A0C0EF90092893F580E4F5A0C4
:0F0A380075A0E0ED9008FD93F4F580E4F5A022A1
:1005EC00AB07300760EB640170318B3D753E1075C5
:1005FC003F10AE3AAF3BFC7D0A1202957C007D0A9F
:10060C001202958D40AE3AAF3B7C007D0A120295EA
:10061C008D41754210754310853544BB02278B3DC7
:10062C00753E10753F10754010754110754210E500
:10063C003675F00A8475F00A8485F043E53675F05A
:10064C000A8485F044200763EB640370468B3D7588
:10065C003E10753F10300C18E53875F00A8475F0B3
:10066C000A8485F040E53875F00A8485F0418006EF
:10067C00754010754110754210300D29E53975F033
:10068C000A8475F00A8485F043E53975F00A84858F
:10069C00F04422753D10753E10753F107540107575
:0C06AC0041107542107543107544102277
:01001A0022C3
:1004AE00E4FFE5237044C2B0D2B1D2B2D2B320B4CD
:1004BE000C20B40512001A80F87F017D0420B50CC3
:1004CE0020B50512001A80F87F017D0320C20C2092
:1004DE00C20512001A80F87F017D0220C40C20C4D0
:1004EE000512001A80F87F017D01E5236401704436
:1004FE00D2B0C2B1D2B2D2B320B40C20B405120025
:10050E001A80F87F017D0820B50C20B50512001A5F
:10051E0080F87F017D0720C20C20C20512001A80D0
:10052E00F87F017D0620C40C20C40512001A80F845
:10053E007F017D05E52364027044D2B0D2B1C2B210
:10054E00D2B320B40C20B40512001A80F87F017DBE
:10055E000C20B50C20B50512001A80F87F017D0B1A
:10056E0020C20C20C20512001A80F87F017D0A20DD
:10057E00C40C20C40512001A80F87F017D09E52302
:10058E0064037044D2B0D2B1D2B2C2B320B40C2044
:10059E00B40512001A80F87F017D1020B50C20B52D
:1005AE000512001A80F87F017D0F20C20C20C205B3
:1005BE0012001A80F87F017D0E20C40C20C4051293
:1005CE00001A80F87F017D0D0523E523B40403E4B2
:0D05DE00F523EF7004FE7F6322EDFF7E0029
:0105EB0022ED
:1009B700120B0D7F0712095E8F24E524B407151269
:1009C7000B0D7F0112095E8F38120B0D7F02120982
:0A09D7005E8F39227538027539046D
:0109E10022F3
:100930008F088D09120B0DAD087F01120A81120B71
:100940000DAD097F02120A81120B0DE508B40206F3
:0E095000E509640460077D077F07120A812213
:10082300C3E54594004010E5469401E54594005026
:1008330006D212C2078004C212D207C3E54694014E
:10084300E54594004010E5469404E54594005006C0
:10085300D213D2118004C213C211C3E5469404E536
:0F0863004594004005D210D20E22C210C20E22C0
:10074400301120E537B40D0A200807753302D20BA7
:10075400D208E537B4090C300809753763B200B222
:100764000FB20B20075CE537B40505753763052523
:10077400E525B40119753303D209C20AE537B4017A
:100784000D7537630538E538B40B03753801E52575
:10079400B40219753303C209D20AE537B4010D75E1
:1007A40037630539E539B40B03753901E525B4031D
:1007B40011753301C209C20AE4F525AD39AF381207
:0207C4000930FA
:0107C6002210
:10087200E53CC39428402CE4F53C7F031209E2AC2A
:1008820007E41201CEE4FBFA797F7843120127E4F0
:10089200FBFA79A0784012001E1202028E458F46A2
:1008A200120744E534C39464400AE4F5341207C7DE
:0A08B2008E3A8F3B1204AE8F3722FE
:100A050075A0807580FFE4F5A075A0A0F580F5A020
:100A1500D2B4D2B5D2C2D2C41209B7120AB41208DE
:030A25007280FBE1
:03001B000202F8E6
:1002F800C0E0C0F0C083C082C0D075D000C000C0CC
:0D03080001C002C003C004C005C006C0074C
:10031500053C0534300E1A0528E52870020527B47A
:100325002C17E527B40112752700752800B2018046
:1003350008752700752800C201300F1A052AE52A1D
:1003450070020529B4F417E529B401127529007561
:100355002A00B2028008752900752A00C2023009F8
:100365001A052CE52C7002052BB4F417E52BB40106
:1003750012752B00752C00B20C8008752B00752C9E
:1003850000D20C300A1A052EE52E7002052DB4F4A4
:1003950017E52DB40112752D00752E00B20D8008DC
:1003A500752D00752E00D20DE53564017053300BA7
:1003B500500530E5307002052FD200AF387E007C45
:1003C500037DE8120283C3EF9530FDEE952FFCE423
:1003D5001201C9E4FBFA797A784412012712020264
:1003E5008F36AF387E007C037DE8120283EFB5308F
:1003F50010EEB52F0C752F00753000C20BC208C268
:1004050000E53564027053300B500532E532700259
:100415000531D200AF397E007C037DE8120283C32B
:10042500EF9532FDEE9531FCE41201C9E4FBFA7952
:100435007A78441201271202028F36AF397E007C8A
:10044500037DE8120283EFB53210EEB5310C75313C
:1004550000753200C20BC208C2000526E526B408A5
:1004650003752600743D2526F8E6FDAF26120A28F9
:10047500D3E53B941EE53A9400500575350180039C
:0E048500753502AF331205EC1208BC120823C5
:10049300D007D006D005D004D003D002D001D000BD
:0B04A300D0D0D082D083D0F0D0E03267
:10001E00EC4D6011E8497017ED33EC3304600DE4DC
:10002E00FCFFFEFD22E933E8330470F802026E1283
:10003E00023958046009E4CC248150062850090284
:10004E000278284003020275C0E0EB4A7044B98082
:10005E0006D0E0FB020264EF4E701CBD8008EBFF81
:10006E00EAFEE9FD80EBE98DF0A4FEE5F002010762
:10007E00E9CDF9EAFEEBFFEF89F0A4FCE5F0CE89BD
:10008E00F0A42EFFE435F0CD89F0A42DFEE435F07A
:10009E008067EF4E7005BD80D780C3EF8BF0A4ACA8
:1000AE00F0EE8BF0A42CFCE435F0F8EF8AF0A42CE3
:1000BE00E5F038FCE433CB8DF0A42CFCE5F03BF8F6
:1000CE00EE8AF0A42CFCE5F038F8E433CF89F0A4E6
:1000DE002CFCE5F038CF3400CE89F0A42FFFE5F0EC
:1000EE003EFEE433C98DF0A42EFEE5F039CD8AF044
:1000FE00A42FFFE5F03EFEE43DFD33D0E0FB5007BC
:10010E000BBB000F020278EC2CFCEF33FFEE33FE3C
:06011E00ED33FD0202506A
:10012400020278EC5D046005E85904700302026E73
:10013400120239580460F6EC4860F2EC7004FDFEDB
:10014400FF22C860DB2481C85009C39860025006AE
:100154000202759850CAF582E9294B4A7005AB82B0
:1001640002026475F0007C1A7880C3EF9BEE9AED6E
:1001740099400DC3EF9BFFEE9AFEED99FDE842F026
:10018400DC23ACF0D0E0FFD0E0FED0E0FDAB822079
:10019400E7101BEB60BAEC2CFCEF33FFEE33FEED03
:1001A40033FD020250E803F830E705C0F075F000B3
:1001B400EF2FFFEE33FEED33FD40B830E7C280AAE7
:1001C40075F020800E75F010800575F0087D007EB6
:1001D400007F003392D530D5031202EAEC3340108D
:1001E400EF33FFEE33FEED33FDEC33FCD5F0ED22BF
:0E01F400E5F0247EA2D513CC92E7CDCEFF22FB
:10020200EDD2E7CD33EC3392D524814006E4FFFEF4
:10021200FDFC22FCE4CFCECDCC24E0501174FF8053
:10022200EDC3CC13CCCD13CDCE13CECF13CF0470F0
:07023200F030D5DE0202EA04
:10023900E9D2E7C933E833F892D5EDD2E7CD33EC0B
:0702490033FC5002B2D52284
:10025000EC30E7100FBF000C0EBE00080DBD00040F
:100260000BEB6014A2D5EB13FCED92E7FD2274FFBB
:10027000FCFDFEFF22E480F8A2D574FF13FC7D8014
:03028000E480EF28
:030000000206B83D
:0C06B800787FE4F6D8FD7581460206FF4D
:10028300EF8DF0A4A8F0CF8CF0A428CE8DF0A42E8F
:02029300FE2249
:10029500BC000BBE0029EF8DF084FFADF022E4CC4D
:1002A500F875F008EF2FFFEE33FEEC33FCEE9DEC16
:1002B500984005FCEE9DFE0FD5F0E9E4CEFD22ED5C
:1002C500F8F5F0EE8420D21CFEADF075F008EF2FA6
:1002D500FFED33FD4007985006D5F0F222C398FD97
:0502E5000FD5F0EA2234
:0E02EA00C3E49FFFE49EFEE49DFDE49CFC2225
:1006C400020A05E493A3F8E493A34003F68001F23D
:1006D40008DFF48029E493A3F85407240CC8C33337
:1006E400C4540F4420C8834004F456800146F6DF06
:1006F400E4800B0102040810204080900B03E47E88
:10070400019360BCA3FF543F30E509541FFEE493FA
:10071400A360010ECF54C025E060A840B8E493A3C1
:10072400FAE493A3F8E493A3C8C582C8CAC583CAEC
:10073400F0A3C8C582C8CAC583CADFE9DEE780BEA4
:010B0C0000E8
:00000001FF
