:1016CC00E4FEC297EF1392A3EFC313FFD2970EBEA3
:0216DC0008F014
:0116DE0022E9
:10167C00C29300C29700D293001216CCAF0512167B
:04168C00CCC2932217
:1013A900E4FDC29300C29700D293001216CCE4FF69
:1013B900C297EDC313FD30A303430580D2970FBF36
:1013C90008EEC29300C29700D29700C2A300D2A32D
:0313D90000AF055D
:0113DC0022EE
:04172200D2A07F05CD
:0A172600000000AE071FEE70F7226E
:0F171300D2A1121722C2A17F05121726C2A0224F
:0C173000C2A1121722D2A17F05021726C9
:1015F500C2A0A21492A17F05121726121722C2A01B
:07160500D2A17F05021726A8
:0A158D00AB071217137F90121471C0
:10159700121722A2A1920BC2A07F05121726A20B37
:0115A7002221
:02147100AD07C5
:10147300E4FCC2A07F05121726ED30E704D2A18059
:1014830002C2A17F05121726D2A0ED25E0FD7F053C
:091493001217260CBC08DBC2A0F4
:01149C00222D
:10157000E4FC121722ED25E0FD30A103430501C272
:0C158000A07F051217260CBC08E8AF0580
:01158C00223C
:10151100AB05AA071217137FA0121471121597AF0A
:1015210002121471121597AF03121471121597025A
:02153100173071
:02144300AB07F5
:101445001217137FA0121471121597AF031214719E
:101455001215971217137FA11214711215971215F1
:0B14650070AD07121597121730AF058D
:011470002259
:10163A0012158D7F43121471121597AF031214718C
:06164A0012159702173093
:1014ED0012158DAF031214711215971217137F91E8
:1014FD00121471121597121570AD07121597121758
:03150D0030AF05F7
:0115100022B8
:10136A00256425642E256425640D0A003F065B4F1B
:10137A00666D7D077F6F777C395E79710040761ED6
:10138A007038375C733E783D6750376EBF86DBCF67
:0F139A00E6EDFD87FFEF460102040810204080BA
:05005C00012A01C18929
:101329007580FF75A080A201B39280A202B3928159
:10133900A203B39282A204B39283A205B39284A2B8
:1013490006B39285A207B39286A208B39287E4F501
:10135900A0F58075A0A0A2009284A20A9286F5A0A9
:011369002261
:101533007580FF75A0C0EF9013A193F580E4F5A02B
:0F15430075A0E0ED90137693F4F580E4F5A02207
:1016DF00438E0475D72075D6D1438E1043AF04D2F5
:0216EF00AF2228
:10160C00759850438E40538EFE53890F758BC7755A
:07161C008DFEC2ABD28E224D
:081761008F993099FDC2992215
:10149D008F4A8D4B8B4CE4FD7F8E12167CAD4C7FAD
:1014AD008012167CAD4B7F8212167CAD4A7F841262
:0914BD00167C7D807F8E02167CF6
:1012E3007F851213A9EFC4540FF5307F851213A91C
:1012F300EF540FF5317532117F831213A9EFC454E4
:101303000FF5337F831213A9EF540FF5347535119D
:101313007F811213A9EFC4540FF5367F811213A9ED
:06132300EF540FF5372224
:1011900012124AE4FBFA79C8784212006612024A37
:1011A0008E2E8F2F753011753111753211753311E7
:1011B0007C037DE81206127C007D0A1206128D3433
:1011C000AE2EAF2F7C007D641206127C007D0A12C9
:1011D0000612ED2420F535AE2EAF2F7C007D0A12CD
:1011E00006127C007D0A1206128D36AE2EAF2F7CC1
:0911F000007D0A1206128D37225F
:101117001214EDAC07E4120216E4FBFA797F784368
:1011270012016FE4FBFA79FA784312006612024A59
:10113700AB07AA0675301175311175321175331168
:101147007C037DE81205BD7C007D0A1205BD8D3448
:101157007C007D64AF03AE021205BD7C007D0A12E0
:1011670005BDED2420F5357C007D0AAF03AE0212E4
:1011770005BD7C007D0A1205BD8D36AE02AF037C2E
:08118700007D0A1205BD8D3741
:01118F00223D
:100003001214EDAB0775301175311175321175335B
:10001300117C037DE87E001205BD7C007D0A12057C
:10002300BD8D347C007D64AF037E001205BD7C0072
:100033007D0A1205BD8D357C007D0AAF037E00125B
:1000430005BD7C007D0A1205BD8D367E00AF037CA5
:08005300007D0A1205BD8D3786
:01005B002282
:1013DD001214437530117531117532117533117544
:1013ED003411EF75F0648475F00A8485F035EF756E
:1013FD00F00A8475F00A8485F036EF75F00A84855D
:02140D00F037B6
:01140F0022BA
:081746007F2F7EAEDEFEDFFC0A
:01174E002278
:1016F100538E7F5389F0758AF4758CFFC28DD28C1D
:0117010022C5
:1011F9007D0A1216F1C290AC051DEC6009308DFD17
:10120900D290C28D80F1C28CE4F58CF58AD28C30F3
:101219009103308DFA308D067E037FE78020AF8CF5
:10122900EFFEAD8A7C00E42DFDEC3EFCE4120211D8
:101239007B967A43798B783C12006612024AC28CFB
:011249002282
:10129B001211F9AB07AA06753011753111753211A0
:1012AB007533117534117C007D641205BD7C007D96
:1012BB000A1205BD8D357C007D0AAF03AE02120507
:1012CB00BD7C007D0A1205BD8D36AE02AF037C00DE
:0712DB007D0A1205BD8D37ED
:0112E20022E9
:100D2D00E4FEC2C4D2C2D2B5D2B420B00730B0FDF9
:100D3D007E017F0120B10730B1FD7E017F0520B21C
:100D4D000730B2FD7E017F0920B30730B3FD7E0170
:100D5D007F0DD2C4C2C2D2B5D2B420B00730B0FD1F
:100D6D007E017F0220B10730B1FD7E017F0620B2EA
:100D7D000730B2FD7E017F0A20B30730B3FD7E013F
:100D8D007F0ED2C4D2C2C2B5D2B420B00730B0FDEE
:100D9D007E017F0320B10730B1FD7E017F0720B2B8
:100DAD000730B2FD7E017F0B20B30730B3FD7E010E
:100DBD007F0FD2C4D2C2D2B5C2B420B00730B0FDBD
:100DCD007E017F0420B10730B1FD7E017F0820B286
:100DDD000730B2FD7E017F0C20B30730B3FD7E01DD
:090DED007F10EE70027F638F2D70
:010DF60022DA
:100F5B00E52D64636045E52DB40F1B0524E5247076
:100F6B00020523C39463E52364809480402D75238D
:100F7B00007524638025E52DB4101CE52415247021
:100F8B00021523D3E5249400E52364809480500B51
:100F9B00E4F523F52480047A00AB2D7C007D0AAFA9
:100FAB0003AE021206127C007D0A1206128D307CF3
:100FBB00007D0AAF03AE021206128D317532117528
:100FCB003311753411753511AE23AF247C007D0AB6
:100FDB001206127C007D0A1206128D36AE23AF2448
:090FEB007C007D0A1206128D370C
:010FF40022DA
:10170200438E80758904758A50758CFBC28DD28C8C
:0117120022B4
:101410000526E52670020525B4F427E525B401224A
:10142000C28CE4F525F526AF8CEF752C00F52BAFBB
:101430008AEF252CF52CE4352BF52BE4F58CF58A79
:02144000D28C4C
:011442002287
:100DF70075300F753110753210D3E52C940FE52B34
:100E0700648094A74016AE2BAF2C7C277D1012066A
:100E1700127C007D0A1206128D338003753310D3BE
:100E2700E52C94E7E52B648094834016AE2BAF2C1A
:100E37007C037DE81206127C007D0A1206128D34AF
:100E47008003753410D3E52C9463E52B648094807C
:100E57004016AE2BAF2C7C007D641206127C007D01
:100E67000A1206128D358003753510D3E52C9409C7
:100E7700E52B648094804016AE2BAF2C7C007D0A56
:100E87001206127C007D0A1206128D368003753613
:100E970010D3E52C9400E52B64809480400EAE2B94
:100EA700AF2C7C007D0A1206128D3722753710226F
:09174F007B587D597F2302149D93
:10169000C3E539940AE53894004008E4F538F53993
:0416A0001212E3221D
:1016A400C3E53B94F4E53A94014008E4F53AF53B8C
:0416B400121190225D
:0317690002170262
:10162300121410C3E53D940AE53C94004008E4F528
:071633003CF53D120DF7220A
:09175800D2B0D2B1D2B2D2B32258
:03176C00020F5B0E
:1016B800C3E541940AE54094004008E4F540F5414B
:0416C80012129B223D
:03176F0002160C53
:100FF500C3E54394E8E5429403500302108AE4F5FF
:1010050042F543753011753111753211753311750E
:10101500341175351175361175371112124AE4FB05
:10102500FA79C8784212006612024A8E2E8F2F7CFA
:10103500037DE81206127C007D0A1206128C4D8D86
:101045004EAE2EAF2F7C007D641206127C007D0A09
:101055001206128C4F8D50AE2EAF2F7C007D0A12DA
:1010650006127C007D0A1206128C518D52AE2EAFEF
:101075002F7C007D0A1206128C538D547BFF7A1348
:06108500796A1206EE225A
:10165000C3E54594C8E5449400400AE4F544F545E3
:061660007F0112000322CD
:100C1700C3E54794E8E54694035003020D2CE4F539
:100C270046F547E52845277012D201C202C203C222
:100C370004C205C206C207C208D200E528640145FE
:100C4700277012C201D202C203C204C205C206C281
:100C570007C208C200E528640245277012C201C214
:100C670002D203C204C205C206C207C208D200E507
:100C770028640345277012C201C202C203D204C20C
:100C870005C206C207C208C200E5286404452770EA
:100C970012C201C202C203C204D205C206C207C2FF
:100CA70008D200E528640545277012C201C202C2B6
:100CB70003C204C205D206C207C208C200E52864FF
:100CC7000645277012C201C202C203C204C205C28E
:100CD70006D207C208D200E528640745277012C26A
:100CE70001C202C203C204C205C206C207D208C2B9
:100CF7000075301175311175321175331175341155
:100D0700753511753611AE27AF287C007D0A12069E
:100D1700128D370528E528700205276408452770D6
:050D270004F527F5288A
:010D2C0022A4
:0A173C007D057F011215110217460A
:10166600C3E54994E8E5489403400AE4F548F5499A
:061676007F011213DD22CA
:1015DC00120D2DE52DB40E04052AD209C3E52A649B
:0915EC0080948A4003752A012253
:100EB70075A0807580FFE4F5A075A0A0F580F5A06A
:100EC7001216DF300948E52A64066002C28EE52A59
:100ED7006408601075A0807580FFE4F5A075A0A078
:100EE700F580F5A0E52AB4010312174FE52AB403EC
:100EF70003121769E52AB40403121758E52AB40642
:100F07000312176FE52AB4090312173CC209E52A31
:100F1700B40103121690E52AB402031216A4E52AB7
:100F2700B4040312176CE52AB405031216B8E52AB0
:100F3700B40603120FF5E52AB40703121650E52A83
:100F4700B40803120C17E52AB40903121666121522
:040F5700DC020ECAE0
:03006300020AFB93
:100AFB00C0E0C0F0C083C082C0D075D000C000C0C1
:070B0B0004C005C006C0078D
:100B12000529E529B4080375290074302529F8E66A
:100B2200FDAF291215331213290539E53970020573
:100B320038D394D0E53894074006753800753900EB
:100B4200053BE53B7002053AD394D0E53A94074061
:100B520006753A00753B00053DE53D7002053CD344
:100B620094D0E53C94074006753C00753D00053F76
:100B7200E53F7002053ED394D0E53E9407400675EA
:100B82003E00753F000541E54170020540D394D017
:100B9200E540940740067540007541000543E54372
:100BA20070020542D394D0E5429407400675420094
:100BB2007543000545E54570020544D394D0E544EC
:100BC200940740067544007545000547E5477002E5
:100BD2000546D394D0E5469407400675460075470E
:100BE200000549E54970020548D394D0E5489407C9
:100BF2004006754800754900E52AB403031216231E
:100C0200D007D006D005D004D000D0D0D082D08377
:050C1200D0F0D0E0323B
:0415A8007F057E003D
:1015AC00EF1FAA0670011E4A600BE4FDEDC3940CFC
:0515BC0050EE0D80F768
:0115C1002207
:02155200A907E7
:10155400E4FBC294E91392941215A8D294E9C3133C
:0C156400F90BBB08ED7F057E000215AC02
:1015C200E4FBC294ECC313FCD29430940343048032
:0915D2001215A80BBB08EBAF04D5
:0115DB0022ED
:1014C600C20BD2947F0C7E001215ACC2947F507E64
:1014D600001215ACD2947F0A7E001215ACA294922B
:0614E6000B1215A8A20B79
:0114EC0022DD
:10124A001214C67FCC1215527F441215527FC87EE3
:10125A00001215AC1214C67FCC1215527FBE12159D
:10126A00527FC87E001215AC1215C2A9071215C208
:10127A0053070FEFFEAD017C00E42DFFEC3EFEADFF
:10128A0007FCE4120211E4FBFA7980783D12006649
:01129A002231
:10006600EC4D6011E8497017ED33EC3304600DE494
:10007600FCFFFEFD22E933E8330470F80202B612F3
:10008600028158046009E4CC2481500628500902F4
:1000960002C02840030202BDC0E0EB4A7044B980AA
:1000A60006D0E0FB0202ACEF4E701CBD8008EBFFF1
:1000B600EAFEE9FD80EBE98DF0A4FEE5F002014FD2
:1000C600E9CDF9EAFEEBFFEF89F0A4FCE5F0CE8975
:1000D600F0A42EFFE435F0CD89F0A42DFEE435F032
:1000E6008067EF4E7005BD80D780C3EF8BF0A4AC60
:1000F600F0EE8BF0A42CFCE435F0F8EF8AF0A42C9B
:10010600E5F038FCE433CB8DF0A42CFCE5F03BF8AD
:10011600EE8AF0A42CFCE5F038F8E433CF89F0A49D
:100126002CFCE5F038CF3400CE89F0A42FFFE5F0A3
:100136003EFEE433C98DF0A42EFEE5F039CD8AF0FB
:10014600A42FFFE5F03EFEE43DFD33D0E0FB500773
:100156000BBB000F0202C0EC2CFCEF33FFEE33FEAC
:06016600ED33FD020298DA
:10016C000202C0EC5D046005E8590470030202B69B
:10017C00120281580460F6EC4860F2EC7004FDFE4B
:10018C00FF22C860DB2481C85009C3986002500666
:10019C000202BD9850CAF582E9294B4A7005AB8220
:1001AC000202AC75F0007C1A7880C3EF9BEE9AEDDE
:1001BC0099400DC3EF9BFFEE9AFEED99FDE842F0DE
:1001CC00DC23ACF0D0E0FFD0E0FED0E0FDAB822031
:1001DC00E7101BEB60BAEC2CFCEF33FFEE33FEEDBB
:1001EC0033FD020298E803F830E705C0F075F00023
:1001FC00EF2FFFEE33FEED33FD40B830E7C280AA9F
:10020C0075F020800E75F010800575F0087D007E6D
:10021C00007F003392D530D503120648EC334010E2
:10022C00EF33FFEE33FEED33FDEC33FCD5F0ED2276
:0E023C00E5F0247EA2D513CC92E7CDCEFF22B2
:10024A00EDD2E7CD33EC3392D524814006E4FFFEAC
:10025A00FDFC22FCE4CFCECDCC24E0501174FF800B
:10026A00EDC3CC13CCCD13CDCE13CECF13CF0470A8
:07027A00F030D5DE0206485A
:10068C00E561244DF8E6056122784A301202784D76
:10069C00E475F001120656020565200BEB7F2ED295
:1006AC000B8018EF540F2490D43440D4FF300F0B30
:1006BC00EF24BFB41A0050032461FFE562600215F9
:1006CC00620565E5657002056430120D784AE475C3
:1006DC00F001120656EF0205AB0217617403D21239
:1006EC008003E4C212F5618B4A8A4B894CE4F562B3
:1006FC00F564F565E56260077F201206C780F57525
:10070C0063FFC20CC20BC20DC20EC210C211C213C7
:10071C00120695FF700D3012057F001206D8AF65DA
:10072C00AE6422B4255FC2D5C20F120695FF24D049
:10073C00B40A00501A75F00A786230D50508B6FF75
:10074C000106C6A426F620D5047002D20E80D92448
:10075C00CFB41A00EF5004C2E5D20F0209C5D20C77
:10076C0080C6D20B80C0D20D80BCD2D580BAD2103C
:10077C0080B47F201206C7200D077401B5620040BB
:10078C00F112068CFF1206C7020700D213D2118099
:10079C009512068CFB12068CFA12068CF94A4B70D9
:1007AC000679BC7A0A7BFF200D2EE562602A7E005A
:1007BC008E8275830012057E60060EEE656370F006
:1007CC00C2D5EBC0E0EAC0E0E9C0E0EE120A25D0E9
:1007DC00E0F9D0E0FAD0E0FB120565FF60AAEBC0AF
:1007EC00E0EAC0E0E9C0E01206C7D0E02401F9D08D
:1007FC00E03400FAD0E0FBE5630460DCD563D9801B
:10080C0087D20D80A2120A0860F7E563700104120A
:10081C0002CBA963600DE563600914F563120AAF9E
:10082C00EF60F3EA30E702F404C3995077EAF42559
:10083C00630430E701E404F563800D120A0860C11B
:10084C00EA056325631202CBEA7860F630E701E42F
:10085C00256304D5630420100114120A25E4C0E0BA
:10086C00120AAF7860E6601320E70714F61206AFA1
:10087C00802204F6D0E014C0E07F001206AFE563DE
:10088C0060071206A61563800B3010031206A6D063
:10089C00E0020700D0E00480C5120A0860A0E563FE
:1008AC00041202CB7860EAF6E563201002600104C2
:0508BC002404120A25CE
:1008C10074FF04C0E0120AAF1206AFE56320100204
:1008D10060031206A6D0E0B563E87F451206B97839
:1008E10060E67F2B30E7047F2DF404C0E01206C7D9
:1008F100D0E075F00A84C0F01206B0D0E01206B064
:10090100020700791080027908C211C2138008D24F
:10091100D5790A8004790AC2D5E563047002F563CA
:10092100E4FAFDFEFF12068CFC7B08200C13120674
:100931008CFD7B10300B0A12068CFE12068CFF7B9D
:1009410020EC3382D592D55013C3E4300B069FFFC0
:10095100E49EFEE4200C039DFDE49CFCE4CBF8C284
:100961000CEC700CCFCECDCCE824F8F870F38017E6
:10097100C3EF33FFEE33FEED33FDEC33FCEB33FB22
:10098100994002FB0FD8E9EB300C05F8D0E0C448E0
:10099100B20CC0E00AEC4D4E4F78207B0070C2EAE9
:1009A100B5630040BCC0E0120A27D0F0D0E0200CB3
:1009B10004C4C0E0C4B20CC0F01206B0D0F0D5F04F
:1009C100EB020700120666079D53090458076E4C97
:1009D100076A4209084F091044091049078343096E
:1009E100165508474608A5450811470ADC50077205
:1009F1002D07762E07992B077A230797200AC52AF8
:100A010007324800000791E563B4FF0375630612DE
:100A1100068CFC12068CFD12068CFE12068CFF78E9
:100A2100590202FA790AA2D5200E14301009B91020
:100A3100020404B9080104A2D520110250010420C6
:100A41000D68920DB562005034C0E07F20300E1960
:100A51007F30A20D72117210500F120A7EC20DC2A8
:100A610011C210C2137F30800F301003E9C0E012B1
:100A710006C7301003D0E0F9D0E0B562CC301017D2
:100A81007F30B9100C1206C77F58300F077F78806E
:100A910003B908031206C7300D057F2D0206C77F73
:100AA100202013F87F2B2011F322920D80CF7F009D
:100AB100B4070050052459F8E6FF22286E756C6CC6
:100AC1002900D20C12068C300CF8C20C786230D599
:100AD1000108F60207322D5043495812068C2403AF
:100AE100B405004001E4900AD7931206B8743A1293
:0A0AF10006B8D20E75620402090473
:10028100E9D2E7C933E833F892D5EDD2E7CD33ECC3
:0702910033FC5002B2D5223C
:10029800EC30E7100FBF000C0EBE00080DBD0004C7
:1002A8000BEB6014A2D5EB13FCED92E7FD2274FF73
:1002B800FCFDFEFF22E480F8A2D574FF13FC7D80CC
:0302C800E480EFE0
:1002CB00F920E72824F950037907E4F42402FB18FA
:1002DB00DBFDE624FB5014E9600DE4F618E604F6AA
:0F02EB00B40A08E4F6D9F57401F60A22C2D52246
:1002FA00ED33EC3392D5FA602AB4FF33EDC2E77BD3
:10030A00FF60067A03791FE4227A03792820D5044C
:10031A007A037923224E614E002B494E46002D491D
:10032A004E4600E47A08F608DAFC7B00740722E8F5
:10033A00C0E0ECC0E0EDC0E0EEC0E0EFC0E0EA757E
:10034A00F010A4CAABF075F04DA42BFBE435F0FC19
:10035A00EA2410FAEB34C5FBEC34D9FCEDC2E7FF12
:10036A0075F056A4F42411C5F0F434C58FF0A42A0C
:10037A00E5F03BE43CF620E714120525D0E0FFD077
:10038A00E0FED0E0FDD0E0FC12016F8014F404120C
:10039A000525D0E0FFD0E0FED0E0FDD0E0FC120061
:1003AA0066D0E0F8E6FAEDD2E7CD33EC332482FBEF
:1003BA00E4C3CF33CFCE33CECD33CD33DBF37B079C
:1003CA0075F00A846004F6081B0AE5F0F6088FF057
:1003DA00740AA4FFACF08EF0740AA42CFEACF050A0
:1003EA00010C8DF0740AA42CFDE435F0F608DBDE6E
:0303FA0074072263
:1003FD000202B6E86480F8E933E83360110460F076
:10040D00ED33EC337009E8FCE9FDEAFEEBFF220465
:10041D0060DED3EB9FEA9EE99DE8C2E78CF0C2F760
:10042D0095F0400CE8CCF8E9CDF9EACEFAEBCFFB2C
:10043D0012028185D0F05804700320D5B3E8047002
:10044D00075002B2D50202C092D5EC0460F7E4CC9D
:10045D00C0E0C398F8603B94186008400DD0E0FBF5
:10046D00020298E4FBFAC9FC8028E830E406E4C9EE
:10047D00FBE4CAFCE830E305E4C9CACBFCE8540749
:10048D006010F8C3E913F9EA13FAEB13FBEC13FC54
:10049D00D8F130F52FC3E49CFCEF9BFFEE9AFEEDF7
:1004AD0099FDD0E0FBEF4E4D4C701222DB030202A2
:1004BD00BDEC2CFCEF33FFEE33FEED33FDED30E7FD
:1004CD00EB020298EF2BFFEE3AFEED39FDD0E0FB8B
:1004DD0050130BBB00030202C0ED13FDEE13FEEF34
:0804ED0013FFEC13FC0202985E
:1004F5003F8000004120000042C80000447A00000F
:10050500461C400047C35000497424004B18968090
:100515004CBEBC205A0E1BCA6753C21C749DC5AE87
:10052500FB60065407601C2323120553EB54386007
:100535000912053F12054E120066ECF8EDF9EEFAC8
:10054500EFCB22EB12054E80F1543803241C9004A6
:10055500F5FE93FC0EEE93FD0EEE930ECE93FF2269
:0300000002108B60
:0C108B00787FE4F6D8FD7581650210D274
:10056500BB010689828A83E0225002E722BBFE0294
:09057500E32289828A83E49322C7
:10057E00BB010CE58229F582E5833AF583E0225032
:10058E0006E92582F8E622BBFE06E92582F8E2227C
:0D059E00E58229F582E5833AF583E4932296
:1005AB00BB010689828A83F0225002F722BBFE012F
:0205BB00F32229
:1005BD00BC000BBE0029EF8DF084FFADF022E4CC22
:1005CD00F875F008EF2FFFEE33FEEC33FCEE9DECEB
:1005DD00984005FCEE9DFE0FD5F0E9E4CEFD22ED31
:1005ED00F8F5F0EE8420D21CFEADF075F008EF2F7B
:1005FD00FFED33FD4007985006D5F0F222C398FD6C
:05060D000FD5F0EA2208
:10061200C2D5EC30E709B2D5E4C39DFDE49CFCEE03
:1006220030E715B2D5E4C39FFFE49EFE1205BDC3B9
:10063200E49DFDE49CFC80031205BD30D507C3E4B4
:060642009FFFE49EFE2272
:0E064800C3E49FFFE49EFEE49DFDE49CFC22C3
:10065600FAE6FB0808E6F925F0F618E6CA3AF622A5
:10066600D083D082F8E4937012740193700DA3A323
:1006760093F8740193F5828883E473740293686037
:06068600EFA3A3A380DF37
:10109700020EB7E493A3F8E493A34003F68001F2AA
:1010A70008DFF48029E493A3F85407240CC8C3335A
:1010B700C4540F4420C8834004F456800146F6DF29
:1010C700E4800B010204081020408090005CE47E5D
:1010D700019360BCA3FF543F30E509541FFEE4931E
:1010E700A360010ECF54C025E060A840B8E493A3E5
:1010F700FAE493A3F8E493A3C8C582C8CAC583CA10
:10110700F0A3C8C582C8CAC583CADFE9DEE780BEC7
:01006100009E
:00000001FF
