:1010C800E4FEC297EF1392A3EFC313FFD2970EBEAD
:0210D80008F01E
:0110DA0022F3
:1010B400C29300C29700D293001210C8AF05121059
:0410C400C8C29322E9
:100E4900E4FDC29300C29700D293001210C8E4FFD8
:100E5900C297EDC313FD30A303430580D2970FBF9B
:100E690008EEC29300C29700D29700C2A300D2A392
:030E790000AF05C2
:010E7C002253
:04110D00D2A07F05E8
:0A111100000000AE071FEE70F72289
:0F10FE00D2A112110DC2A17F05121111C2A022A1
:0C111B00C2A112110DD2A17F050211111A
:10107000C2A0A21392A17F0512111112110DC2A0DC
:07108000D2A17F050211114E
:0A102100AB071210FE7F90120EDEE6
:10102B0012110DA2A19214C2A07F05121111A214CC
:01103B002292
:020EDE00AD075E
:100EE000E4FCC2A07F05121111ED30E704D2A1800D
:100EF00002C2A17F05121111D2A0ED25E0FD7F05F0
:090F00001211110CBC08DBC2A0A7
:010F090022C5
:10100400E4FC12110DED25E0FD30A103430501C2FE
:0C101400A07F051211110CBC08E8AF050C
:0110200022AD
:100FA500AB05AA071210FE7FA0120EDE12102BAFA2
:100FB50002120EDE12102BAF03120EDE12102B02E0
:020FC500111BFE
:020EB000AB078E
:100EB2001210FE7FA0120EDE12102BAF03120EDEF6
:100EC20012102B1210FE7FA1120EDE12102B121026
:0B0ED20004AD0712102B12111BAF051E
:010EDD0022F2
:10109E001210217F43120EDE12102BAF03120EDE42
:0610AE0012102B02111BC1
:100F8100121021AF03120EDE12102B1210FE7F91F0
:100F9100120EDE12102B121004AD0712102B1211BB
:030FA1001BAF057E
:010FA400222A
:100DD000BEE0C0EBCEAA25640D0A003F065B4F665D
:100DE0006D7D077F6F777C395E79710040761E706C
:100DF00038375C733E783D6750376EBF86DBCFE691
:0E0E0000EDFD87FFEF46010204081020408040
:100D8F007580FF75A080A201B39280A202B39281F9
:100D9F00A203B39282A204B39283A205B39284A258
:100DAF0006B39285A207B39286A208B39287E4F5A1
:100DBF00A0F58075A0A0A2009284A2099286F5A04A
:010DCF002201
:100FC7007580FF75A0C0EF900E0693F580E4F5A03D
:0F0FD70075A0E0ED900DDB93F4F580E4F5A0221A
:1010DB00438E0475D72075D6D1438E1043AF04D2FF
:0210EB00AF2232
:10108700759850438E40538EFE53890F758BC775E5
:071097008DFEC2ABD28E22D8
:081148008F993099FDC2992234
:100F0A008F158D168B17E4FD7F8E1210B4AD177FE7
:100F1A00801210B4AD167F821210B4AD157F841200
:090F2A0010B47D807F8E0210B42A
:100D49007F85120E49EFC4540FF50D7F85120E49A8
:100D5900EF540FF50E750F117F83120E49EFC4542E
:100D69000FF5107F83120E49EF540FF5117512110B
:100D79007F81120E49EFC4540FF5137F81120E497A
:060D8900EF540FF51422E7
:100C3E00120CF8E4FBFA79C8784212006612024AE6
:100C4E008E0A8F0B750D11750E11750F1175101112
:100C5E007C037DE81206127C007D0A1206128D11AD
:100C6E00AE0AAF0B7C007D641206127C007D0A1268
:100C7E000612ED2420F512AE0AAF0B7C007D0A128F
:100C8E0006127C007D0A1206128D13AE0AAF0B7C83
:090C9E00007D0A1206128D1422D9
:100BC500120F81AC07E4120216E4FBFA797F784331
:100BD50012016FE4FBFA79FA784312006612024AB1
:100BE500AB07AA06750D11750E11750F117510114C
:100BF5007C037DE81205BD7C007D0A1205BD8D11C3
:100C05007C007D64AF03AE021205BD7C007D0A1237
:100C150005BDED2420F5127C007D0AAF03AE02125E
:100C250005BD7C007D0A1205BD8D13AE02AF037CA8
:080C3500007D0A1205BD8D14BB
:010C3D002294
:100E7D00120EB0750D11750E11750F1175101175CE
:100E8D001111EF75F0648475F00A8485F012EF7519
:100E9D00F00A8475F00A8485F013EF75F00A8485E5
:020EAD00F0143F
:010EAF002220
:08113F007F2F7EAEDEFEDFFC17
:011147002285
:1010ED00538E7F5389F0758AF4758CFFC28DD28C27
:0110FD0022D0
:100CA7007D0A1210EDC290AC051DEC6009308DFD78
:100CB700D290C28D80F1C28CE4F58CF58AD28C304B
:100CC7009103308DFA308D067E037FE78020AF8C4D
:100CD700EFFEAD8A7C00E42DFDEC3EFCE412021130
:100CE7007B967A43798B783C12006612024AC28C53
:010CF70022DA
:10000300120CA78E188F197BFF7A0D79D0851826CD
:100013008519271206EE750D11750E11750F1175E1
:100023001011751111AE18AF197C007D641205BD56
:100033007C007D0A1205BD8D12AE18AF197C007DC0
:100043000A1205BD7C007D0A1205BD8D13AE18AFE3
:0A005300197C007D0A1205BD8D1412
:01005D002280
:100AFB00C215C2C4D2C2D2B5D2B420B00730B0FD39
:100B0B00D2157F0120B10730B1FDD2157F0220B283
:100B1B000730B2FDD2157F0320B30730B3FDD215DA
:100B2B007F04D2C4C2C2D2B5D2B420B00730B0FD5C
:100B3B00D2157F0520B10730B1FDD2157F0620B24B
:100B4B000730B2FDD2157F0720B30730B3FDD215A6
:100B5B007F08D2C4D2C2C2B5D2B420B00730B0FD28
:100B6B00D2157F0920B10730B1FDD2157F0A20B213
:100B7B000730B2FDD2157F0B20B30730B3FDD21572
:100B8B007F0CD2C4D2C2D2B5C2B420B00730B0FDF4
:100B9B00D2157F0D20B10730B1FDD2157F0E20B2DB
:100BAB000730B2FDD2157F0F20B30730B3FDD2153E
:090BBB007F102015027F638F09F1
:010BC400220E
:0C112700E50CB41E06E4F50C120C3E2290
:100F330075A0807580FFE4F5A075A0A0F580F5A0ED
:100F43007B587D597F23120F0A1210DB1210871270
:070F53000AFB12112780F8D0
:03006300020E0E7C
:100E0E00C0E0C083C082C0D075D000C000C005C095
:010E1E0007CC
:100E1F00050C0508E508B40803750800740D2508CE
:0B0E2F00F8E6FDAF08120FC7120D8F90
:0F0E3A00D007D005D000D0D0D082D083D0E03206
:04103C007F057E00AE
:10104000EF1FAA0670011E4A600BE4FDEDC3940C6D
:0510500050EE0D80F7D9
:011055002278
:020FE600A90759
:100FE800E4FBC294E913929412103CD294E9C3131F
:0C0FF800F90BBB08ED7F057E00021040E5
:10105600E4FBC294ECC313FCD294309403430480A3
:0910660012103C0BBB08EBAF04B7
:01106F00225E
:100F5A00C215D2947F0C7E00121040C2947F507E3C
:100F6A0000121040D2947F0A7E00121040A294927E
:060F7A001512103CA21547
:010F8000224E
:100CF800120F5A7FCC120FE67F44120FE67FC87E90
:100D080000121040120F5A7FCC120FE67FBE120F4E
:100D1800E67FC87E00121040121056A9071210561E
:100D280053070FEFFEAD017C00E42DFFEC3EFEAD56
:100D380007FCE4120211E4FBFA7980783D120066A0
:010D48002288
:10006600EC4D6011E8497017ED33EC3304600DE494
:10007600FCFFFEFD22E933E8330470F80202B612F3
:10008600028158046009E4CC2481500628500902F4
:1000960002C02840030202BDC0E0EB4A7044B980AA
:1000A60006D0E0FB0202ACEF4E701CBD8008EBFFF1
:1000B600EAFEE9FD80EBE98DF0A4FEE5F002014FD2
:1000C600E9CDF9EAFEEBFFEF89F0A4FCE5F0CE8975
:1000D600F0A42EFFE435F0CD89F0A42DFEE435F032
:1000E6008067EF4E7005BD80D780C3EF8BF0A4AC60
:1000F600F0EE8BF0A42CFCE435F0F8EF8AF0A42C9B
:10010600E5F038FCE433CB8DF0A42CFCE5F03BF8AD
:10011600EE8AF0A42CFCE5F038F8E433CF89F0A49D
:100126002CFCE5F038CF3400CE89F0A42FFFE5F0A3
:100136003EFEE433C98DF0A42EFEE5F039CD8AF0FB
:10014600A42FFFE5F03EFEE43DFD33D0E0FB500773
:100156000BBB000F0202C0EC2CFCEF33FFEE33FEAC
:06016600ED33FD020298DA
:10016C000202C0EC5D046005E8590470030202B69B
:10017C00120281580460F6EC4860F2EC7004FDFE4B
:10018C00FF22C860DB2481C85009C3986002500666
:10019C000202BD9850CAF582E9294B4A7005AB8220
:1001AC000202AC75F0007C1A7880C3EF9BEE9AEDDE
:1001BC0099400DC3EF9BFFEE9AFEED99FDE842F0DE
:1001CC00DC23ACF0D0E0FFD0E0FED0E0FDAB822031
:1001DC00E7101BEB60BAEC2CFCEF33FFEE33FEEDBB
:1001EC0033FD020298E803F830E705C0F075F00023
:1001FC00EF2FFFEE33FEED33FD40B830E7C280AA9F
:10020C0075F020800E75F010800575F0087D007E6D
:10021C00007F003392D530D503120648EC334010E2
:10022C00EF33FFEE33FEED33FDEC33FCD5F0ED2276
:0E023C00E5F0247EA2D513CC92E7CDCEFF22B2
:10024A00EDD2E7CD33EC3392D524814006E4FFFEAC
:10025A00FDFC22FCE4CFCECDCC24E0501174FF800B
:10026A00EDC3CC13CCCD13CDCE13CECF13CF0470A8
:07027A00F030D5DE0206485A
:10068C00E53A2426F8E6053A22782330110278263A
:10069C00E475F001120656020565200AEB7F2ED296
:1006AC000A8018EF540F2490D43440D4FF300E0B32
:1006BC00EF24BFB41A0050032461FFE53B60021520
:1006CC003B053EE53E7002053D30110D7823E47587
:1006DC00F001120656EF0205AB0211487403D21159
:1006EC008003E4C211F53A8B238A248925E4F53B77
:1006FC00F53DF53EE53B60077F201206C780F5759A
:10070C003CFFC20BC20AC20CC20DC20FC210C212F5
:10071C00120695FF700D3011057F001206D8AF3E02
:10072C00AE3D22B4255FC2D5C20E120695FF24D071
:10073C00B40A00501A75F00A783B30D50508B6FF9C
:10074C000106C6A426F620D5047002D20D80D92449
:10075C00CFB41A00EF5004C2E5D20E0209C5D20B79
:10076C0080C6D20A80C0D20C80BCD2D580BAD20F3F
:10077C0080B47F201206C7200C077401B53B0040E3
:10078C00F112068CFF1206C7020700D212D210809B
:10079C009512068CFB12068CFA12068CF94A4B70D9
:1007AC000679BC7A0A7BFF200C2EE53B602A7E0082
:1007BC008E8275830012057E60060EEE653C70F02D
:1007CC00C2D5EBC0E0EAC0E0E9C0E0EE120A25D0E9
:1007DC00E0F9D0E0FAD0E0FB120565FF60AAEBC0AF
:1007EC00E0EAC0E0E9C0E01206C7D0E02401F9D08D
:1007FC00E03400FAD0E0FBE53C0460DCD53CD98069
:10080C0087D20C80A2120A0860F7E53C7001041232
:10081C0002CBA93C600DE53C600914F53C120AAF13
:10082C00EF60F3EA30E702F404C3995077EAF42559
:10083C003C0430E701E404F53C800D120A0860C169
:10084C00EA053C253C1202CBEA7839F630E701E4A4
:10085C00253C04D53C04200F0114120A25E4C0E009
:10086C00120AAF7839E6601320E70714F61206AFC8
:10087C00802204F6D0E014C0E07F001206AFE53C05
:10088C0060071206A6153C800B300F031206A6D08B
:10089C00E0020700D0E00480C5120A0860A0E53C25
:1008AC00041202CB7839EAF6E53C200F0260010411
:0508BC002404120A25CE
:1008C10074FF04C0E0120AAF1206AFE53C200F022C
:1008D10060031206A6D0E0B53CE87F451206B97860
:1008E10039E67F2B30E7047F2DF404C0E01206C700
:1008F100D0E075F00A84C0F01206B0D0E01206B064
:10090100020700791080027908C210C2128008D251
:10091100D5790A8004790AC2D5E53C047002F53C18
:10092100E4FAFDFEFF12068CFC7B08200B13120675
:100931008CFD7B10300A0A12068CFE12068CFF7B9E
:1009410020EC3382D592D55013C3E4300A069FFFC1
:10095100E49EFEE4200B039DFDE49CFCE4CBF8C285
:100961000BEC700CCFCECDCCE824F8F870F38017E7
:10097100C3EF33FFEE33FEED33FDEC33FCEB33FB22
:10098100994002FB0FD8E9EB300B05F8D0E0C448E1
:10099100B20BC0E00AEC4D4E4F78207B0070C2EAEA
:1009A100B53C0040BCC0E0120A27D0F0D0E0200BDB
:1009B10004C4C0E0C4B20BC0F01206B0D0F0D5F050
:1009C100EB020700120666079D53090458076E4C97
:1009D100076A4209084F091044091049078343096E
:1009E100165508474608A5450811470ADC50077205
:1009F1002D07762E07992B077A230797200AC52AF8
:100A010007324800000791E53CB4FF03753C06122C
:100A1100068CFC12068CFD12068CFE12068CFF78E9
:100A2100320202FA790AA2D5200D14300F09B91049
:100A3100020404B9080104A2D520100250010420C7
:100A41000C68920CB53B005034C0E07F20300D198A
:100A51007F30A20C7210720F500F120A7EC20CC2AC
:100A610010C20FC2127F30800F300F03E9C0E012B5
:100A710006C7300F03D0E0F9D0E0B53BCC300F17FB
:100A81007F30B9100C1206C77F58300E077F78806F
:100A910003B908031206C7300C057F2D0206C77F74
:100AA100202012F87F2B2010F322920C80CF7F00A0
:100AB100B4070050052432F8E6FF22286E756C6CED
:100AC1002900D20B12068C300BF8C20B783B30D5C3
:100AD1000108F60207322D5043495812068C2403AF
:100AE100B405004001E4900AD7931206B8743A1293
:0A0AF10006B8D20D753B040209049B
:10028100E9D2E7C933E833F892D5EDD2E7CD33ECC3
:0702910033FC5002B2D5223C
:10029800EC30E7100FBF000C0EBE00080DBD0004C7
:1002A8000BEB6014A2D5EB13FCED92E7FD2274FF73
:1002B800FCFDFEFF22E480F8A2D574FF13FC7D80CC
:0302C800E480EFE0
:1002CB00F920E72824F950037907E4F42402FB18FA
:1002DB00DBFDE624FB5014E9600DE4F618E604F6AA
:0F02EB00B40A08E4F6D9F57401F60A22C2D52246
:1002FA00ED33EC3392D5FA602AB4FF33EDC2E77BD3
:10030A00FF60067A03791FE4227A03792820D5044C
:10031A007A037923224E614E002B494E46002D491D
:10032A004E4600E47A08F608DAFC7B00740722E8F5
:10033A00C0E0ECC0E0EDC0E0EEC0E0EFC0E0EA757E
:10034A00F010A4CAABF075F04DA42BFBE435F0FC19
:10035A00EA2410FAEB34C5FBEC34D9FCEDC2E7FF12
:10036A0075F056A4F42411C5F0F434C58FF0A42A0C
:10037A00E5F03BE43CF620E714120525D0E0FFD077
:10038A00E0FED0E0FDD0E0FC12016F8014F404120C
:10039A000525D0E0FFD0E0FED0E0FDD0E0FC120061
:1003AA0066D0E0F8E6FAEDD2E7CD33EC332482FBEF
:1003BA00E4C3CF33CFCE33CECD33CD33DBF37B079C
:1003CA0075F00A846004F6081B0AE5F0F6088FF057
:1003DA00740AA4FFACF08EF0740AA42CFEACF050A0
:1003EA00010C8DF0740AA42CFDE435F0F608DBDE6E
:0303FA0074072263
:1003FD000202B6E86480F8E933E83360110460F076
:10040D00ED33EC337009E8FCE9FDEAFEEBFF220465
:10041D0060DED3EB9FEA9EE99DE8C2E78CF0C2F760
:10042D0095F0400CE8CCF8E9CDF9EACEFAEBCFFB2C
:10043D0012028185D0F05804700320D5B3E8047002
:10044D00075002B2D50202C092D5EC0460F7E4CC9D
:10045D00C0E0C398F8603B94186008400DD0E0FBF5
:10046D00020298E4FBFAC9FC8028E830E406E4C9EE
:10047D00FBE4CAFCE830E305E4C9CACBFCE8540749
:10048D006010F8C3E913F9EA13FAEB13FBEC13FC54
:10049D00D8F130F52FC3E49CFCEF9BFFEE9AFEEDF7
:1004AD0099FDD0E0FBEF4E4D4C701222DB030202A2
:1004BD00BDEC2CFCEF33FFEE33FEED33FDED30E7FD
:1004CD00EB020298EF2BFFEE3AFEED39FDD0E0FB8B
:1004DD0050130BBB00030202C0ED13FDEE13FEEF34
:0804ED0013FFEC13FC0202985E
:1004F5003F8000004120000042C80000447A00000F
:10050500461C400047C35000497424004B18968090
:100515004CBEBC205A0E1BCA6753C21C749DC5AE87
:10052500FB60065407601C2323120553EB54386007
:100535000912053F12054E120066ECF8EDF9EEFAC8
:10054500EFCB22EB12054E80F1543803241C9004A6
:10055500F5FE93FC0EEE93FD0EEE930ECE93FF2269
:03000000021133B7
:0C113300787FE4F6D8FD75813E020F3392
:10056500BB010689828A83E0225002E722BBFE0294
:09057500E32289828A83E49322C7
:10057E00BB010CE58229F582E5833AF583E0225032
:10058E0006E92582F8E622BBFE06E92582F8E2227C
:0D059E00E58229F582E5833AF583E4932296
:1005AB00BB010689828A83F0225002F722BBFE012F
:0205BB00F32229
:1005BD00BC000BBE0029EF8DF084FFADF022E4CC22
:1005CD00F875F008EF2FFFEE33FEEC33FCEE9DECEB
:1005DD00984005FCEE9DFE0FD5F0E9E4CEFD22ED31
:1005ED00F8F5F0EE8420D21CFEADF075F008EF2F7B
:1005FD00FFED33FD4007985006D5F0F222C398FD6C
:05060D000FD5F0EA2208
:10061200C2D5EC30E709B2D5E4C39DFDE49CFCEE03
:1006220030E715B2D5E4C39FFFE49EFE1205BDC3B9
:10063200E49DFDE49CFC80031205BD30D507C3E4B4
:060642009FFFE49EFE2272
:0E064800C3E49FFFE49EFEE49DFDE49CFC22C3
:10065600FAE6FB0808E6F925F0F618E6CA3AF622A5
:10066600D083D082F8E4937012740193700DA3A323
:1006760093F8740193F5828883E473740293686037
:06068600EFA3A3A380DF37
:00000001FF
