:10171A00E4FEC297EF1392A3EFC313FFD2970EBE54
:02172A0008F0C5
:01172C00229A
:1016CA00C29300C29700D2930012171AAF051217DD
:0416DA001AC293227B
:1013FB00E4FDC29300C29700D2930012171AE4FFC8
:10140B00C297EDC313FD30A303430580D2970FBFE3
:10141B0008EEC29300C29700D29700C2A300D2A3DA
:03142B0000AF050A
:01142E00229B
:04177000D2A07F057F
:0A177400000000AE071FEE70F72220
:0F176100D2A1121770C2A17F05121774C2A02265
:0C177E00C2A1121770D2A17F05021774DF
:10164300C2A0A21492A17F05121774121770C2A030
:07165300D2A17F050217740C
:0A15DB00AB071217617F901214BFD6
:1015E500121770A2A1920BC2A07F05121774A20B4D
:0115F50022D3
:0214BF00AD0777
:1014C100E4FCC2A07F05121774ED30E704D2A180BD
:1014D10002C2A17F05121774D2A0ED25E0FD7F05A0
:0914E1001217740CBC08DBC2A058
:0114EA0022DF
:1015BE00E4FC121770ED25E0FD30A103430501C2D6
:0C15CE00A07F051217740CBC08E8AF05E4
:0115DA0022EE
:10155F00AB05AA071217617FA01214BF1215E5AFD2
:10156F00021214BF1215E5AF031214BF1215E502D4
:02157F00177ED5
:02149100AB07A7
:101493001217617FA01214BF1215E5AF031214BF18
:1014A3001215E51217617FA11214BF1215E512156B
:0B14B300BEAD071215E512177EAF0555
:0114BE00220B
:101688001215DB7F431214BF1215E5AF031214BF06
:061698001215E502177EA9
:10153B001215DBAF031214BF1215E51217617F9161
:10154B001214BF1215E51215BEAD071215E51217D1
:03155B007EAF055B
:01155E00226A
:1013BC00256425642E256425640D0A003F065B4FC9
:1013CC00666D7D077F6F777C395E79710040761E84
:1013DC007038375C733E783D6750376EBF86DBCF15
:0F13EC00E6EDFD87FFEF46010204081020408068
:05005C00012A01C18929
:10137B007580FF75A080A201B39280A202B3928107
:10138B00A203B39282A204B39283A205B39284A266
:10139B0006B39285A207B39286A208B39287E4F5AF
:1013AB00A0F58075A0A0A2009284A20A9286F5A057
:0113BB00220F
:101581007580FF75A0C0EF9013F393F580E4F5A08B
:0F15910075A0E0ED9013C893F4F580E4F5A02267
:10172D00438E0475D72075D6D1438E1043AF04D2A6
:02173D00AF22D9
:10165A00759850438E40538EFE53890F758BC7750C
:07166A008DFEC2ABD28E22FF
:0817AF008F993099FDC29922C7
:1014EB008F4A8D4B8B4CE4FD7F8E1216CAAD4C7F11
:1014FB00801216CAAD4B7F821216CAAD4A7F841278
:09150B0016CA7D807F8E0216CA0B
:101335007F851213FBEFC4540FF5307F851213FB25
:10134500EF540FF5317532117F831213FBEFC4543F
:101355000FF5337F831213FBEF540FF534753511F9
:101365007F811213FBEFC4540FF5367F811213FBF7
:06137500EF540FF53722D2
:1011E20012129CE4FBFA79C8784212006612024A93
:1011F2008E2E8F2F75301175311175321175331195
:101202007C037DE81206127C007D0A1206128D34E0
:10121200AE2EAF2F7C007D641206127C007D0A1276
:101222000612ED2420F535AE2EAF2F7C007D0A127A
:1012320006127C007D0A1206128D36AE2EAF2F7C6E
:09124200007D0A1206128D37220C
:1000030012153BAB0775301175311175321175330C
:10001300117C037DE87E001205BD7C007D0A12057C
:10002300BD8D347C007D64AF037E001205BD7C0072
:100033007D0A1205BD8D357C007D0AAF037E00125B
:1000430005BD7C007D0A1205BD8D367E00AF037CA5
:08005300007D0A1205BD8D3786
:01005B002282
:1011690012153BAC07E4120216E4FBFA797F7843C7
:1011790012016FE4FBFA79FA784312006612024A07
:10118900AB07AA0675301175311175321175331116
:101199007C037DE81205BD7C007D0A1205BD8D34F6
:1011A9007C007D64AF03AE021205BD7C007D0A128E
:1011B90005BDED2420F5357C007D0AAF03AE021292
:1011C90005BD7C007D0A1205BD8D36AE02AF037CDC
:0811D900007D0A1205BD8D37EF
:0111E10022EB
:10142F0012149175301175311175321175331175A3
:10143F003411EF75F0648475F00A8485F035EF751B
:10144F00F00A8475F00A8485F036EF75F00A84850A
:02145F00F03764
:011461002268
:081794007F2F7EAEDEFEDFFCBC
:01179C00222A
:10173F00538E7F5389F0758AF4758CFFC28DD28CCE
:01174F002277
:10124B007D0A12173FC290AC051DEC6009308DFD75
:10125B00D290C28D80F1C28CE4F58CF58AD28C30A1
:10126B009103308DFA308D067E037FE78020AF8CA3
:10127B00EFFEAD8A7C00E42DFDEC3EFCE412021186
:10128B007B967A43798B783C12006612024AC28CA9
:01129B002230
:1012ED0012124BAB07AA06753011753111753211FB
:1012FD007533117534117C007D641205BD7C007D44
:10130D000A1205BD8D357C007D0AAF03AE021205B4
:10131D00BD7C007D0A1205BD8D36AE02AF037C008B
:07132D007D0A1205BD8D379A
:011334002296
:01006200227B
:100AFB00C20BC20BC2C4D2C2D2B5D2B420B00C202E
:100B0B00B00512006280F8D20B7F0120B10C20B12E
:100B1B000512006280F8D20B7F0520B20C20B205C3
:100B2B0012006280F8D20B7F0920B30C20B30512A0
:100B3B00006280F8D20B7F0DD2C4C2C2D2B5D2B440
:100B4B0020B00C20B00512006280F8D20B7F02207F
:100B5B00B10C20B10512006280F8D20B7F0620B2D7
:100B6B000C20B20512006280F8D20B7F0A20B30C66
:100B7B0020B30512006280F8D20B7F0ED2C4D2C212
:100B8B00C2B5D2B420B00C20B00512006280F8D2EE
:100B9B000B7F0320B10C20B10512006280F8D20B41
:100BAB007F0720B20C20B20512006280F8D20B7FB7
:100BBB000B20B30C20B30512006280F8D20B7F0F11
:100BCB00D2C4D2C2D2B5C2B420B00C20B005120030
:100BDB006280F8D20B7F0420B10C20B105120062A9
:100BEB0080F8D20B7F0820B20C20B2051200628075
:100BFB00F8D20B7F0C20B30C20B30512006280F8E7
:0B0C0B00D20B7F10200B027F638F2DA7
:010C160022BB
:100FAD00E52D64636045E52DB40F1B0524E5247024
:100FBD00020523C39463E52364809480402D75233B
:100FCD00007524638025E52DB4101CE524152470CF
:100FDD00021523D3E5249400E52364809480500BFF
:100FED00E4F523F52480047A00AB2D7C007D0AAF57
:100FFD0003AE021206127C007D0A1206128D307CA1
:10100D00007D0AAF03AE021206128D3175321175D5
:10101D003311753411753511AE23AF247C007D0A63
:10102D001206127C007D0A1206128D36AE23AF24F5
:09103D007C007D0A1206128D37B9
:011046002287
:10175000438E80758904758A50758CFBC28DD28C3E
:011760002266
:101462000526E52670020525B4F423E525B4011E00
:10147200C28CE4F525F526AF8CEFFEAD8A7C00E444
:0E1482002DF52CEC3EF52BE4F58CF58AD28C82
:011490002239
:100E490075300F753110753210D3E52C940FE52BE1
:100E5900648094A74016AE2BAF2C7C277D10120618
:100E6900127C007D0A1206128D338003753310D36C
:100E7900E52C94E7E52B648094834016AE2BAF2CC8
:100E89007C037DE81206127C007D0A1206128D345D
:100E99008003753410D3E52C9463E52B648094802A
:100EA9004016AE2BAF2C7C007D641206127C007DAF
:100EB9000A1206128D358003753510D3E52C940975
:100EC900E52B648094804016AE2BAF2C7C007D0A04
:100ED9001206127C007D0A1206128D3680037536C1
:100EE90010D3E52C9400E52B64809480400EAE2B42
:100EF900AF2C7C007D0A1206128D3722753710221D
:09179D007B587D597F230214EBF7
:1016DE00C3E539940AE53894004008E4F538F53945
:0416EE00121335227C
:1016F200C3E53B94F4E53A94014008E4F53AF53B3E
:041702001211E222BC
:0317B700021750C6
:10167100121462C3E53D940AE53C94004008E4F588
:071681003CF53D120E492269
:0917A600D2B0D2B1D2B2D2B3220A
:0317BA00020FAD6E
:10170600C3E541940AE54094004008E4F540F541FC
:041716001212ED229C
:0317BD0002165AB7
:10104700C3E54394E8E542940350030210DCE4F55A
:1010570042F54375301175311175321175331175BC
:10106700341175351175361175371112129CE4FB61
:10107700FA79C8784212006612024A8E2E8F2F7CA8
:10108700037DE81206127C007D0A1206128C4D8D34
:101097004EAE2EAF2F7C007D641206127C007D0AB7
:1010A7001206128C4F8D50AE2EAF2F7C007D0A1288
:1010B70006127C007D0A1206128C518D52AE2EAF9D
:1010C7002F7C007D0A1206128C538D547BFF7A13F6
:0610D70079BC1206EE22B6
:10169E00C3E54594C8E5449400400AE4F544F54595
:0616AE007F01120003227F
:100D3300C3E54794E8E54694035003020E48E4F5FF
:100D430046F547E52845277012D201C202C203C205
:100D530004C205C206C207C208D200E528640145E1
:100D6300277012C201D202C203C204C205C206C264
:100D730007C208C200E528640245277012C201C2F7
:100D830002D203C204C205C206C207C208D200E5EA
:100D930028640345277012C201C202C203D204C2EF
:100DA30005C206C207C208C200E5286404452770CD
:100DB30012C201C202C203C204D205C206C207C2E2
:100DC30008D200E528640545277012C201C202C299
:100DD30003C204C205D206C207C208C200E52864E2
:100DE3000645277012C201C202C203C204C205C271
:100DF30006D207C208D200E528640745277012C24D
:100E030001C202C203C204C205C206C207D208C29B
:100E13000075301175311175321175331175341137
:100E2300753511753611AE27AF287C007D0A120681
:100E3300128D370528E528700205276408452770B9
:050E430004F527F5286D
:010E48002287
:0A178A007D057F0112155F02179420
:1016B400C3E54994E8E5489403400AE4F548F5494C
:0616C4007F0112142F2229
:10162A00120AFBE52DB40E04052AD209C3E52A6481
:09163A0080948A4003752A012204
:100F090075A0807580FFE4F5A075A0A0F580F5A017
:100F190012172D300948E52A64066002C28EE52AB7
:100F29006408601075A0807580FFE4F5A075A0A025
:100F3900F580F5A0E52AB4010312179DE52AB4034B
:100F4900031217B7E52AB404031217A6E52AB40653
:100F5900031217BDE52AB4090312178AC209E52A43
:100F6900B401031216DEE52AB402031216F2E52AC9
:100F7900B404031217BAE52AB40503121706E52AC1
:100F8900B40603121047E52AB4070312169EE52A90
:100F9900B40803120D33E52AB409031216B4121664
:040FA9002A020F1CED
:03006300020C1775
:100C1700C0E0C0F0C083C082C0D075D000C000C0A3
:070C270004C005C006C00770
:100C2E000529E529B4080375290074302529F8E64D
:100C3E00FDAF2912158112137B0539E539700205B6
:100C4E0038D394D0E53894074006753800753900CE
:100C5E00053BE53B7002053AD394D0E53A94074044
:100C6E0006753A00753B00053DE53D7002053CD327
:100C7E0094D0E53C94074006753C00753D00053F59
:100C8E00E53F7002053ED394D0E53E9407400675CD
:100C9E003E00753F000541E54170020540D394D0FA
:100CAE00E540940740067540007541000543E54355
:100CBE0070020542D394D0E5429407400675420077
:100CCE007543000545E54570020544D394D0E544CF
:100CDE00940740067544007545000547E5477002C8
:100CEE000546D394D0E546940740067546007547F1
:100CFE00000549E54970020548D394D0E5489407AC
:100D0E004006754800754900E52AB40303121671B2
:100D1E00D007D006D005D004D000D0D0D082D0835A
:050D2E00D0F0D0E0321E
:0415F6007F057E00EF
:1015FA00EF1FAA0670011E4A600BE4FDEDC3940CAE
:05160A0050EE0D80F719
:01160F0022B8
:0215A000A90799
:1015A200E4FBC294E91392941215F6D294E9C313A0
:0C15B200F90BBB08ED7F057E000215FA66
:10161000E4FBC294ECC313FCD294309403430480E3
:091620001215F60BBB08EBAF0438
:01162900229E
:10151400C20BD2947F0C7E001215FAC2947F507EC7
:10152400001215FAD2947F0A7E001215FAA2949240
:061534000B1215F6A20BDC
:01153A00228E
:10129C001215147FCC1215A07F441215A07FC87EA6
:1012AC00001215FA1215147FCC1215A07FBE121560
:1012BC00A07FC87E001215FA121610A9071216107C
:1012CC0053070FEFFEAD017C00E42DFFEC3EFEADAD
:1012DC0007FCE4120211E4FBFA7980783D120066F7
:0112EC0022DF
:10006600EC4D6011E8497017ED33EC3304600DE494
:10007600FCFFFEFD22E933E8330470F80202B612F3
:10008600028158046009E4CC2481500628500902F4
:1000960002C02840030202BDC0E0EB4A7044B980AA
:1000A60006D0E0FB0202ACEF4E701CBD8008EBFFF1
:1000B600EAFEE9FD80EBE98DF0A4FEE5F002014FD2
:1000C600E9CDF9EAFEEBFFEF89F0A4FCE5F0CE8975
:1000D600F0A42EFFE435F0CD89F0A42DFEE435F032
:1000E6008067EF4E7005BD80D780C3EF8BF0A4AC60
:1000F600F0EE8BF0A42CFCE435F0F8EF8AF0A42C9B
:10010600E5F038FCE433CB8DF0A42CFCE5F03BF8AD
:10011600EE8AF0A42CFCE5F038F8E433CF89F0A49D
:100126002CFCE5F038CF3400CE89F0A42FFFE5F0A3
:100136003EFEE433C98DF0A42EFEE5F039CD8AF0FB
:10014600A42FFFE5F03EFEE43DFD33D0E0FB500773
:100156000BBB000F0202C0EC2CFCEF33FFEE33FEAC
:06016600ED33FD020298DA
:10016C000202C0EC5D046005E8590470030202B69B
:10017C00120281580460F6EC4860F2EC7004FDFE4B
:10018C00FF22C860DB2481C85009C3986002500666
:10019C000202BD9850CAF582E9294B4A7005AB8220
:1001AC000202AC75F0007C1A7880C3EF9BEE9AEDDE
:1001BC0099400DC3EF9BFFEE9AFEED99FDE842F0DE
:1001CC00DC23ACF0D0E0FFD0E0FED0E0FDAB822031
:1001DC00E7101BEB60BAEC2CFCEF33FFEE33FEEDBB
:1001EC0033FD020298E803F830E705C0F075F00023
:1001FC00EF2FFFEE33FEED33FD40B830E7C280AA9F
:10020C0075F020800E75F010800575F0087D007E6D
:10021C00007F003392D530D503120648EC334010E2
:10022C00EF33FFEE33FEED33FDEC33FCD5F0ED2276
:0E023C00E5F0247EA2D513CC92E7CDCEFF22B2
:10024A00EDD2E7CD33EC3392D524814006E4FFFEAC
:10025A00FDFC22FCE4CFCECDCC24E0501174FF800B
:10026A00EDC3CC13CCCD13CDCE13CECF13CF0470A8
:07027A00F030D5DE0206485A
:10068C00E561244DF8E6056122784A301202784D76
:10069C00E475F001120656020565200BEB7F2ED295
:1006AC000B8018EF540F2490D43440D4FF300F0B30
:1006BC00EF24BFB41A0050032461FFE562600215F9
:1006CC00620565E5657002056430120D784AE475C3
:1006DC00F001120656EF0205AB0217AF7403D212EB
:1006EC008003E4C212F5618B4A8A4B894CE4F562B3
:1006FC00F564F565E56260077F201206C780F57525
:10070C0063FFC20CC20BC20DC20EC210C211C213C7
:10071C00120695FF700D3012057F001206D8AF65DA
:10072C00AE6422B4255FC2D5C20F120695FF24D049
:10073C00B40A00501A75F00A786230D50508B6FF75
:10074C000106C6A426F620D5047002D20E80D92448
:10075C00CFB41A00EF5004C2E5D20F0209C5D20C77
:10076C0080C6D20B80C0D20D80BCD2D580BAD2103C
:10077C0080B47F201206C7200D077401B5620040BB
:10078C00F112068CFF1206C7020700D213D2118099
:10079C009512068CFB12068CFA12068CF94A4B70D9
:1007AC000679BC7A0A7BFF200D2EE562602A7E005A
:1007BC008E8275830012057E60060EEE656370F006
:1007CC00C2D5EBC0E0EAC0E0E9C0E0EE120A25D0E9
:1007DC00E0F9D0E0FAD0E0FB120565FF60AAEBC0AF
:1007EC00E0EAC0E0E9C0E01206C7D0E02401F9D08D
:1007FC00E03400FAD0E0FBE5630460DCD563D9801B
:10080C0087D20D80A2120A0860F7E563700104120A
:10081C0002CBA963600DE563600914F563120AAF9E
:10082C00EF60F3EA30E702F404C3995077EAF42559
:10083C00630430E701E404F563800D120A0860C11B
:10084C00EA056325631202CBEA7860F630E701E42F
:10085C00256304D5630420100114120A25E4C0E0BA
:10086C00120AAF7860E6601320E70714F61206AFA1
:10087C00802204F6D0E014C0E07F001206AFE563DE
:10088C0060071206A61563800B3010031206A6D063
:10089C00E0020700D0E00480C5120A0860A0E563FE
:1008AC00041202CB7860EAF6E563201002600104C2
:0508BC002404120A25CE
:1008C10074FF04C0E0120AAF1206AFE56320100204
:1008D10060031206A6D0E0B563E87F451206B97839
:1008E10060E67F2B30E7047F2DF404C0E01206C7D9
:1008F100D0E075F00A84C0F01206B0D0E01206B064
:10090100020700791080027908C211C2138008D24F
:10091100D5790A8004790AC2D5E563047002F563CA
:10092100E4FAFDFEFF12068CFC7B08200C13120674
:100931008CFD7B10300B0A12068CFE12068CFF7B9D
:1009410020EC3382D592D55013C3E4300B069FFFC0
:10095100E49EFEE4200C039DFDE49CFCE4CBF8C284
:100961000CEC700CCFCECDCCE824F8F870F38017E6
:10097100C3EF33FFEE33FEED33FDEC33FCEB33FB22
:10098100994002FB0FD8E9EB300C05F8D0E0C448E0
:10099100B20CC0E00AEC4D4E4F78207B0070C2EAE9
:1009A100B5630040BCC0E0120A27D0F0D0E0200CB3
:1009B10004C4C0E0C4B20CC0F01206B0D0F0D5F04F
:1009C100EB020700120666079D53090458076E4C97
:1009D100076A4209084F091044091049078343096E
:1009E100165508474608A5450811470ADC50077205
:1009F1002D07762E07992B077A230797200AC52AF8
:100A010007324800000791E563B4FF0375630612DE
:100A1100068CFC12068CFD12068CFE12068CFF78E9
:100A2100590202FA790AA2D5200E14301009B91020
:100A3100020404B9080104A2D520110250010420C6
:100A41000D68920DB562005034C0E07F20300E1960
:100A51007F30A20D72117210500F120A7EC20DC2A8
:100A610011C210C2137F30800F301003E9C0E012B1
:100A710006C7301003D0E0F9D0E0B562CC301017D2
:100A81007F30B9100C1206C77F58300F077F78806E
:100A910003B908031206C7300D057F2D0206C77F73
:100AA100202013F87F2B2011F322920D80CF7F009D
:100AB100B4070050052459F8E6FF22286E756C6CC6
:100AC1002900D20C12068C300CF8C20C786230D599
:100AD1000108F60207322D5043495812068C2403AF
:100AE100B405004001E4900AD7931206B8743A1293
:0A0AF10006B8D20E75620402090473
:10028100E9D2E7C933E833F892D5EDD2E7CD33ECC3
:0702910033FC5002B2D5223C
:10029800EC30E7100FBF000C0EBE00080DBD0004C7
:1002A8000BEB6014A2D5EB13FCED92E7FD2274FF73
:1002B800FCFDFEFF22E480F8A2D574FF13FC7D80CC
:0302C800E480EFE0
:1002CB00F920E72824F950037907E4F42402FB18FA
:1002DB00DBFDE624FB5014E9600DE4F618E604F6AA
:0F02EB00B40A08E4F6D9F57401F60A22C2D52246
:1002FA00ED33EC3392D5FA602AB4FF33EDC2E77BD3
:10030A00FF60067A03791FE4227A03792820D5044C
:10031A007A037923224E614E002B494E46002D491D
:10032A004E4600E47A08F608DAFC7B00740722E8F5
:10033A00C0E0ECC0E0EDC0E0EEC0E0EFC0E0EA757E
:10034A00F010A4CAABF075F04DA42BFBE435F0FC19
:10035A00EA2410FAEB34C5FBEC34D9FCEDC2E7FF12
:10036A0075F056A4F42411C5F0F434C58FF0A42A0C
:10037A00E5F03BE43CF620E714120525D0E0FFD077
:10038A00E0FED0E0FDD0E0FC12016F8014F404120C
:10039A000525D0E0FFD0E0FED0E0FDD0E0FC120061
:1003AA0066D0E0F8E6FAEDD2E7CD33EC332482FBEF
:1003BA00E4C3CF33CFCE33CECD33CD33DBF37B079C
:1003CA0075F00A846004F6081B0AE5F0F6088FF057
:1003DA00740AA4FFACF08EF0740AA42CFEACF050A0
:1003EA00010C8DF0740AA42CFDE435F0F608DBDE6E
:0303FA0074072263
:1003FD000202B6E86480F8E933E83360110460F076
:10040D00ED33EC337009E8FCE9FDEAFEEBFF220465
:10041D0060DED3EB9FEA9EE99DE8C2E78CF0C2F760
:10042D0095F0400CE8CCF8E9CDF9EACEFAEBCFFB2C
:10043D0012028185D0F05804700320D5B3E8047002
:10044D00075002B2D50202C092D5EC0460F7E4CC9D
:10045D00C0E0C398F8603B94186008400DD0E0FBF5
:10046D00020298E4FBFAC9FC8028E830E406E4C9EE
:10047D00FBE4CAFCE830E305E4C9CACBFCE8540749
:10048D006010F8C3E913F9EA13FAEB13FBEC13FC54
:10049D00D8F130F52FC3E49CFCEF9BFFEE9AFEEDF7
:1004AD0099FDD0E0FBEF4E4D4C701222DB030202A2
:1004BD00BDEC2CFCEF33FFEE33FEED33FDED30E7FD
:1004CD00EB020298EF2BFFEE3AFEED39FDD0E0FB8B
:1004DD0050130BBB00030202C0ED13FDEE13FEEF34
:0804ED0013FFEC13FC0202985E
:1004F5003F8000004120000042C80000447A00000F
:10050500461C400047C35000497424004B18968090
:100515004CBEBC205A0E1BCA6753C21C749DC5AE87
:10052500FB60065407601C2323120553EB54386007
:100535000912053F12054E120066ECF8EDF9EEFAC8
:10054500EFCB22EB12054E80F1543803241C9004A6
:10055500F5FE93FC0EEE93FD0EEE930ECE93FF2269
:030000000210DD0E
:0C10DD00787FE4F6D8FD758165021124CF
:10056500BB010689828A83E0225002E722BBFE0294
:09057500E32289828A83E49322C7
:10057E00BB010CE58229F582E5833AF583E0225032
:10058E0006E92582F8E622BBFE06E92582F8E2227C
:0D059E00E58229F582E5833AF583E4932296
:1005AB00BB010689828A83F0225002F722BBFE012F
:0205BB00F32229
:1005BD00BC000BBE0029EF8DF084FFADF022E4CC22
:1005CD00F875F008EF2FFFEE33FEEC33FCEE9DECEB
:1005DD00984005FCEE9DFE0FD5F0E9E4CEFD22ED31
:1005ED00F8F5F0EE8420D21CFEADF075F008EF2F7B
:1005FD00FFED33FD4007985006D5F0F222C398FD6C
:05060D000FD5F0EA2208
:10061200C2D5EC30E709B2D5E4C39DFDE49CFCEE03
:1006220030E715B2D5E4C39FFFE49EFE1205BDC3B9
:10063200E49DFDE49CFC80031205BD30D507C3E4B4
:060642009FFFE49EFE2272
:0E064800C3E49FFFE49EFEE49DFDE49CFC22C3
:10065600FAE6FB0808E6F925F0F618E6CA3AF622A5
:10066600D083D082F8E4937012740193700DA3A323
:1006760093F8740193F5828883E473740293686037
:06068600EFA3A3A380DF37
:1010E900020F09E493A3F8E493A34003F68001F205
:1010F90008DFF48029E493A3F85407240CC8C33308
:10110900C4540F4420C8834004F456800146F6DFD6
:10111900E4800B010204081020408090005CE47E0A
:10112900019360BCA3FF543F30E509541FFEE493CB
:10113900A360010ECF54C025E060A840B8E493A392
:10114900FAE493A3F8E493A3C8C582C8CAC583CABD
:10115900F0A3C8C582C8CAC583CADFE9DEE780BE75
:01006100009E
:00000001FF
