:0402D600D2A07F052E
:0A02DA00000000AE071FEE70F722CF
:0F02B800D2A11202D6C2A17F051202DAC2A02281
:0C02E400C2A11202D6D2A17F050202DAEC
:10000300C2A0A20092A17F051202DA1202D6C2A0F8
:07001300D2A17F050202DA11
:0A027200AB071202B87F901201E7FB
:10027C001202D6A2A19201C2A07F051202DAA2013B
:01028C00224F
:0201E700AD0762
:1001E900E4FCC2A07F051202DAED30E704D2A18057
:1001F90002C2A17F051202DAD2A0ED25E0FD7F053A
:090209001202DA0CBC08DBC2A0F1
:0102120022C9
:10025500E4FC1202D6ED25E0FD30A103430501C201
:0C026500A07F051202DA0CBC08E8AF050F
:01027100226A
:10028D001202727F431201E712027CAF031201E7E3
:06029D0012027C0202E4E3
:10021300120272AF031201E712027C1202B87F913D
:100223001201E712027C120255AD0712027C120280
:03023300E4AF0530
:0102360022A5
:10018000202B313F065B4F666D7D077F6F777C3993
:100190005E79710040761E7038375C733E783D673B
:1001A00050376EBF86DBCFE6EDFD87FFEF460821B7
:0801B000010204081020408048
:1002A300438E4053890F758B20758DD1C28FD28EAB
:0502B300D2ABD2AF2226
:1002370075A0C074212FF8E6F580E4F5A075A0E05D
:0E02470074312DF8E6F4F580E4F5A0F5802280
:0E02C70000007F057E907D47DDFEDEFCDFFA45
:0102D5002206
:1000AA0075A0E0E4F580F5A075A0807580FFF5A045
:1000BA001202A3AE5DAF5E7C037DE812012B8F298D
:1000CA00AE5DAF5E7C037DE812012B7E007F64CFBC
:1000DA00CDCFCECCCE12012B8F2AAE5DAF5E7C0087
:1000EA007D6412012B7E007F0ACFCDCFCECCCE12FB
:1000FA00012B8F2BAE5DAF5E7C007D0A12012B8D2A
:10010A002C752D10752E10752F107530101202C710
:10011A007F03120213755D008F5E7FFF12028D80CE
:01012A009242
:03001B000201B926
:1001B900C0E0C0D075D000C000C005C007055CE52F
:1001C9005CB40803755C007429255CF8E6FDAF5C36
:0E01D900120237D007D005D000D0D0D0E032CF
:0300000002001EDD
:0C001E00787FE4F6D8FD75815E02006575
:10012B00BC000BBE0029EF8DF084FFADF022E4CCB8
:10013B00F875F008EF2FFFEE33FEEC33FCEE9DEC81
:10014B00984005FCEE9DFE0FD5F0E9E4CEFD22EDC7
:10015B00F8F5F0EE8420D21CFEADF075F008EF2F11
:10016B00FFED33FD4007985006D5F0F222C398FD02
:05017B000FD5F0EA229F
:10002A000200AAE493A3F8E493A34003F68001F242
:10003A0008DFF48029E493A3F85407240CC8C333D7
:10004A00C4540F4420C8834004F456800146F6DFA6
:10005A00E4800B0102040810204080900180E47EB5
:10006A00019360BCA3FF543F30E509541FFEE4939B
:10007A00A360010ECF54C025E060A840B8E493A362
:10008A00FAE493A3F8E493A3C8C582C8CAC583CA8D
:10009A00F0A3C8C582C8CAC583CADFE9DEE780BE45
:0101B8000046
:00000001FF
