:10051A0080828486888A8C8E81838587898B8D8F59
:10052A003F065B4F666D7D077F6F777C395E797119
:10053A000040761E7038375C733E783D6750376EE0
:10054A00BF86DBCFE6EDFD87FFEF46010204081008
:03055A00204080BE
:0307BB000117170C
:10000300438E4053890F758B20758DD1C28FD28E4D
:05001300D2ABD2AF22C8
:10059E008F228D238B24E4FD7F8E12078BAD227F5D
:1005AE008412078BAD237F8212078BAD247F8012BE
:1005BE00078B7D807F8E12078B7F851206158F121B
:0F05CE007F831206158F0F7F811206158F0B2268
:10055D00751819751901751A10751B10751C10AECB
:10056D0010AF117C007D641201E38F1DAE10AF1131
:10057D007C007D0A1201E37C007D0A1201E3ED246B
:10058D0020F51EAE10AF117C007D0A1201E38D1F08
:01059D00223B
:10047600200926751819751902751A10E512C45443
:100486000FF51BE512540FF51C751D11E50FC4542D
:100496000FF51EE50F540FF51F300926751819754F
:1004A6001902751A10E50FC4540FF51BE50F540F0A
:1004B600F51C751D11E50BC4540FF51EE50B540F05
:0304C600F51F22FD
:10067F00751819751903751A10751B10751C1075DF
:10068F001D10E51775F00A8475F00A8485F01EE5D4
:09069F001775F00A8485F01F2292
:10064D007580FF75A080300702C280200702D2801E
:10065D00300802C281200802D281300002C28220FD
:10066D000002D282D283D284D285D286D287E4F59B
:02067D00A022B9
:10071A007580FF75A0C0EF90055593F580E4F5A0AC
:0F072A0075A0E0ED90052A93F4F580E4F5A02288
:0807B2007F757EB8DEFEDFFC5E
:0107BA00221C
:1002F500200360C2B2D2B3D2B4D2B520B430E50C7B
:10030500B40102D20520B4131207B27F8312061579
:100315008F0F7F811206158F0B80EAE50CB4020260
:100325001517E517D3940A500C75170A8007E50CC5
:10033500B40102C20520B51B20B504D2AF80F97502
:10034500A0A0E4F580F5A0C20275A0807580FFF538
:10035500A0B204300339D2B2C2B3D2B4D2B520B4FC
:100365001820B404D2AF80F9E50CB402020517E5F4
:1003750017C39463400375176320B51320B504D2E2
:10038500AF80F9050CE50CC394034003E4F50C229A
:1005DD00E516C3941E4017E4F5161204C9E4FBFAA0
:1005ED007920784112001E1201628E108F11E50ADA
:1005FD0070157F851206158F127F831206158F0FCA
:08060D007F811206158F0B22FC
:1006F60075A0807580FFE4F5A075A0A0F580F5A033
:100706007B557D597F2312059E1200031205DD12CB
:0407160002F580F870
:1004210020042BD208E51775F00AA4FFD3E5119F2C
:10043100E51095F0400E75A0A0E4F580D284F5A0FA
:10044100D202800A75A0A0E4F580F5A0C2023004B2
:1004510023C208E50F7011E50B700DD20675A0A03F
:10046100F580D284F5A0D202E50F7008E50B700487
:05047100D201D20722B8
:1006A800E50C700312055DE50CB40105C2091204DE
:1006B80076E50CB40108300505D209120476E50C7C
:0706C800B4020312067F22B9
:03001B0002024698
:10024600C0E0C0F0C083C082C0D075D000C000C07E
:1002560004C005C006C007050AE50AB40803750A06
:10026600007418250AF8E6FDAF0A12071A0515E507
:1002760015B41405751500B203051630020E0508EF
:10028600E508B46409750800B2008002C2003006B1
:1002960023050EE50E7002050DB48818E50DB4139E
:1002A60013750D00750E00C20675A0A07580007549
:1002B600A000C20230011A0514E51470020513B439
:1002C600880FE513B4130A751300751400C201C232
:1002D6000712064D1204211206A8D007D006D00533
:0F02E600D004D000D0D0D082D083D0F0D0E0327E
:10079F00E4FEC297EF1392A3EFC313FFD2970EBEDF
:0207AF0008F050
:0107B1002225
:10078B00C29300C29700D2930012079FAF051207C6
:04079B009FC2932244
:10061500E4FDC2AFC29300C29700D2930012079FB8
:10062500E4FFC297EDC313FD30A303430580D297C2
:100635000FBF08EEC29300C29700D29700C2A30075
:07064500D2A300D2AFAF0504
:01064C00228B
:040757007F057E009C
:10075B00EF1FAA0670011E4A600BE4FDEDC3940C5B
:05076B0050EE0D80F7C7
:010770002266
:02073900A9070E
:10073B00E4FBC294E9139294120757D294E9C313C2
:0C074B00F90BBB08ED7F057E0002075B88
:10077100E4FBC294ECC313FCD29430940343048091
:090781001207570BBB08EBAF0493
:01078A00224C
:1006CF00C20AD2947F0C7E0012075BC2947F507EC9
:1006DF000012075BD2947F0A7E0012075BA29492EE
:0606EF000A120757A20ADF
:0106F50022E2
:1004C9001206CF7FCC1207397F441207397FC87EC5
:1004D9000012075B1206CF7FCC1207397FBE1207C5
:1004E900397FC87E0012075B120771A907120771CD
:1004F90053070FEFFEAD017C00E42DFFEC3EFEAD8E
:1005090007FCE4120129E4FBFA7980783D12001E08
:0105190022BF
:10001E00EC4D6011E8497017ED33EC3304600DE4DC
:10002E00FCFFFEFD22E933E8330470F80201CE1224
:10003E00019958046009E4CC248150062850090225
:10004E0001D82840030201D5C0E0EB4A7044B980C4
:10005E0006D0E0FB0201C4EF4E701CBD8008EBFF22
:10006E00EAFEE9FD80EBE98DF0A4FEE5F002010762
:10007E00E9CDF9EAFEEBFFEF89F0A4FCE5F0CE89BD
:10008E00F0A42EFFE435F0CD89F0A42DFEE435F07A
:10009E008067EF4E7005BD80D780C3EF8BF0A4ACA8
:1000AE00F0EE8BF0A42CFCE435F0F8EF8AF0A42CE3
:1000BE00E5F038FCE433CB8DF0A42CFCE5F03BF8F6
:1000CE00EE8AF0A42CFCE5F038F8E433CF89F0A4E6
:1000DE002CFCE5F038CF3400CE89F0A42FFFE5F0EC
:1000EE003EFEE433C98DF0A42EFEE5F039CD8AF044
:1000FE00A42FFFE5F03EFEE43DFD33D0E0FB5007BC
:10010E000BBB000F0201D8EC2CFCEF33FFEE33FEDD
:06011E00ED33FD0201B00B
:1001240075F020800E75F010800575F0087D007E56
:10013400007F003392D530D503120238EC334010DF
:10014400EF33FFEE33FEED33FDEC33FCD5F0ED225F
:0E015400E5F0247EA2D513CC92E7CDCEFF229B
:10016200EDD2E7CD33EC3392D524814006E4FFFE95
:10017200FDFC22FCE4CFCECDCC24E0501174FF80F4
:10018200EDC3CC13CCCD13CDCE13CECF13CF047091
:07019200F030D5DE02023857
:10019900E9D2E7C933E833F892D5EDD2E7CD33ECAC
:0701A90033FC5002B2D52225
:1001B000EC30E7100FBF000C0EBE00080DBD0004B0
:1001C0000BEB6014A2D5EB13FCED92E7FD2274FF5C
:1001D000FCFDFEFF22E480F8A2D574FF13FC7D80B5
:0301E000E480EFC9
:0300000002039563
:0C039500787FE4F6D8FD7581240203DCBB
:1001E300BC000BBE0029EF8DF084FFADF022E4CC00
:1001F300F875F008EF2FFFEE33FEEC33FCEE9DECC9
:10020300984005FCEE9DFE0FD5F0E9E4CEFD22ED0E
:10021300F8F5F0EE8420D21CFEADF075F008EF2F58
:10022300FFED33FD4007985006D5F0F222C398FD49
:050233000FD5F0EA22E6
:0E023800C3E49FFFE49EFEE49DFDE49CFC22D7
:1003A1000206F6E493A3F8E493A34003F68001F276
:1003B10008DFF48029E493A3F85407240CC8C3335D
:1003C100C4540F4420C8834004F456800146F6DF2C
:1003D100E4800B01020408102040809007BBE47EFA
:1003E100019360BCA3FF543F30E509541FFEE49321
:1003F100A360010ECF54C025E060A840B8E493A3E8
:10040100FAE493A3F8E493A3C8C582C8CAC583CA12
:10041100F0A3C8C582C8CAC583CADFE9DEE780BECA
:0107BE00003A
:00000001FF
