:04043E007F057E00B8
:10044200EF1FAA0670011E4A6013E4FCFDC3ED947F
:0D0452000CEC940050EA0DBD00010C80F090
:01045F00227A
:02046000A907EA
:10046200E4FBC294E913929412043ED294E9C313BA
:0C047200F90BBB08ED7F057E0002044280
:10049C00E4FBC294E9C313F9D29430940343018072
:0904AC0012043E0BBB08EBAF018A
:0104B5002224
:10041700C200D2947F0C7E00120442C2947F507EA9
:1004270000120442D2947F0A7E00120442A29492E0
:060437000012043EA200C9
:01043D00229C
:100358007F007E007D007C001204177FCC120460B1
:100368007F441204607FC87E001204421204177F83
:10037800CC1204607FBE1204607FC87E0012044263
:1003880012049C8F0812049C53070FEFFE7C00E4B4
:100398002508FFEC3EFEAD07FCE4120129E4FBFA58
:0703A8007980783D12001E70
:0103AF00222B
:1003B000202B333F065B4F666D7D077F6F777C395F
:1003C0005E79710040761E7038375C733E783D6709
:1003D00050376EBF86DBCFE6EDFD87FFEF46082185
:0803E000010204081020408016
:10000300438E4053890F758B20758DD1C28FD28E4D
:05001300D2ABD2AF22C8
:10047E0075A0C074212FF8E6F580E4F5A075A0E014
:0E048E0074332DF8E6F4F580E4F5A0F5802235
:1002D20075A0807580FFE4F5A075A0A0F580F5A05B
:1002E200120003AE29AF2A7C037DE81201E38F2BB3
:1002F200AE29AF2A7C037DE81201E37E007F64CF42
:10030200CDCFCECCCE1201E3EF2420F52CAE29AF17
:100312002A7C007D641201E37E007F0ACFCDCFCE1E
:10032200CCCE1201E38F2DAE29AF2A7C007D0A12BA
:1003320001E38D2E752F1075301075311075321046
:10034200120358E4FBFA79C8784212001E120162C5
:060352008E298F2A808D28
:03001B000203E9F4
:1003E900C0E0C0D075D000C000C005C007055EE5FB
:1003F9005EB40803755E00742B255EF8E6FDAF5EFA
:0E04090012047ED007D005D000D0D0D0E03253
:10001E00EC4D6011E8497017ED33EC3304600DE4DC
:10002E00FCFFFEFD22E933E8330470F80201CE1224
:10003E00019958046009E4CC248150062850090225
:10004E0001D82840030201D5C0E0EB4A7044B980C4
:10005E0006D0E0FB0201C4EF4E701CBD8008EBFF22
:10006E00EAFEE9FD80EBE98DF0A4FEE5F002010762
:10007E00E9CDF9EAFEEBFFEF89F0A4FCE5F0CE89BD
:10008E00F0A42EFFE435F0CD89F0A42DFEE435F07A
:10009E008067EF4E7005BD80D780C3EF8BF0A4ACA8
:1000AE00F0EE8BF0A42CFCE435F0F8EF8AF0A42CE3
:1000BE00E5F038FCE433CB8DF0A42CFCE5F03BF8F6
:1000CE00EE8AF0A42CFCE5F038F8E433CF89F0A4E6
:1000DE002CFCE5F038CF3400CE89F0A42FFFE5F0EC
:1000EE003EFEE433C98DF0A42EFEE5F039CD8AF044
:1000FE00A42FFFE5F03EFEE43DFD33D0E0FB5007BC
:10010E000BBB000F0201D8EC2CFCEF33FFEE33FEDD
:06011E00ED33FD0201B00B
:1001240075F020800E75F010800575F0087D007E56
:10013400007F003392D530D503120238EC334010DF
:10014400EF33FFEE33FEED33FDEC33FCD5F0ED225F
:0E015400E5F0247EA2D513CC92E7CDCEFF229B
:10016200EDD2E7CD33EC3392D524814006E4FFFE95
:10017200FDFC22FCE4CFCECDCC24E0501174FF80F4
:10018200EDC3CC13CCCD13CDCE13CECF13CF047091
:07019200F030D5DE02023857
:10019900E9D2E7C933E833F892D5EDD2E7CD33ECAC
:0701A90033FC5002B2D52225
:1001B000EC30E7100FBF000C0EBE00080DBD0004B0
:1001C0000BEB6014A2D5EB13FCED92E7FD2274FF5C
:1001D000FCFDFEFF22E480F8A2D574FF13FC7D80B5
:0301E000E480EFC9
:03000000020246B3
:0C024600787FE4F6D8FD75815E02028D21
:1001E300BC000BBE0029EF8DF084FFADF022E4CC00
:1001F300F875F008EF2FFFEE33FEEC33FCEE9DECC9
:10020300984005FCEE9DFE0FD5F0E9E4CEFD22ED0E
:10021300F8F5F0EE8420D21CFEADF075F008EF2F58
:10022300FFED33FD4007985006D5F0F222C398FD49
:050233000FD5F0EA22E6
:0E023800C3E49FFFE49EFEE49DFDE49CFC22D7
:100252000202D2E493A3F8E493A34003F68001F2EE
:1002620008DFF48029E493A3F85407240CC8C333AD
:10027200C4540F4420C8834004F456800146F6DF7C
:10028200E4800B01020408102040809003B0E47E59
:10029200019360BCA3FF543F30E509541FFEE49371
:1002A200A360010ECF54C025E060A840B8E493A338
:1002B200FAE493A3F8E493A3C8C582C8CAC583CA63
:1002C200F0A3C8C582C8CAC583CADFE9DEE780BE1B
:0103E8000014
:00000001FF
