:1001CD00030816212C0647000000000000202B1B01
:1001DD003F065B4F666D7D077F6F777C395E79716A
:1001ED000040761E7038375C733E783D6750376E31
:1001FD00BF86DBCFE6EDFD87FFEF46080B0102045E
:05020D000810204080F4
:10000300438E4053890F758B20758DD1C28FD28E4D
:05001300D2ABD2AF22C8
:1002C10075A0C0740B2FF8E6F580E4F5A075A0E0E9
:0E02D100741B2DF8E6F4F580E4F5A0F580220C
:1002580075A0807580FFE4F5A075A0A0F580F5A0D5
:10026800120003FB7A00790812017B854713854841
:1002780014751511854916854A17751811854B1976
:05028800854C1A80E620
:03001B00020124BB
:10012400C0E0C0F0C083C082C0D075D000C000C0A1
:1001340001C002C003C004C005C006C0070546E5EF
:1001440046B408037546007B007A0079471202130F
:1001540074132546F8E6FDAF461202C1D007D00657
:10016400D005D004D003D002D001D000D0D0D082AA
:07017400D083D0F0D0E0328F
:1002FB00E4FEC297EF1392A3EFC313FFD2970EBE88
:02030B0008F0F8
:01030D0022CD
:0802DF0075F00A84E5F02EFD24
:1002E700C29300C29700D293001202FBAF0512021D
:0402F700FBC2932291
:10028D00E4FDC29300C29700D293001202FBE4FF7B
:10029D00C297EDC313FD30A303430580D2970FBF63
:1002AD0008EEC29300C29700D29700C2A300D2A35A
:0302BD0000AF058A
:0102C000221B
:10017B00E4FD7F8E1202E79000021200C3FF75F0C0
:10018B000A84C454F0FEEF7F801202DF900001124C
:10019B0000C3FF75F00A84C454F0FEEF7F82120295
:1001AB00DF1200AAFF75F00A84C454F0FEEF75F05D
:1001BB000A84E5F02EFD7F841202E77D807F8E029C
:0201CB0002E749
:100213007F8112028DEFC4540F900004120102EF8C
:10022300540F9000051201027F8312028DEFC45414
:100233000F900002120102EF540F9000031201020B
:100243007F8512028DEFC4540F1200F0EF540F900C
:050253000001020102A0
:0300000002001EDD
:0C001E00787FE4F6D8FD75814C02006587
:1000AA00BB010689828A83E0225002E722BBFE0254
:0900BA00E32289828A83E4932287
:1000C300BB010CE58229F582E5833AF583E02250F2
:1000D30006E92582F8E622BBFE06E92582F8E2223C
:0D00E300E58229F582E5833AF583E4932256
:1000F000BB010689828A83F0225002F722BBFE01EF
:02010000F322E8
:10010200F8BB010DE58229F582E5833AF583E8F033
:10011200225006E92582C8F622BBFE05E92582C8DF
:02012200F222C7
:10002A00020258E493A3F8E493A34003F68001F292
:10003A0008DFF48029E493A3F85407240CC8C333D7
:10004A00C4540F4420C8834004F456800146F6DFA6
:10005A00E4800B01020408102040809001CDE47E68
:10006A00019360BCA3FF543F30E509541FFEE4939B
:10007A00A360010ECF54C025E060A840B8E493A362
:10008A00FAE493A3F8E493A3C8C582C8CAC583CA8D
:10009A00F0A3C8C582C8CAC583CADFE9DEE780BE45
:0102120000EB
:00000001FF
